:020000041000EA
:1000000000B5324B212058609868022188439860DF
:10001000D860186158612E4B002199600221596106
:100020000121F02299502B49196001219960352056
:1000300000F044F80222904214D00621196600F024
:1000400034F8196E01211966002018661A6600F04E
:100050002CF8196E196E196E052000F02FF8012189
:100060000842F9D1002199601B49196000215960AB
:100070001A491B48016001219960EB211966A021F2
:10008000196600F012F800219960164914480160C1
:100090000121996001BC002800D000471248134993
:1000A000086003C880F30888084703B5996A0420EC
:1000B0000142FBD001200142F8D103BD02B5186610
:1000C0001866FFF7F2FF186E186E02BD00000240BE
:1000D000000000180000070000035F00212200005C
:1000E000F4000018222000A00001001008ED00E03C
:1000F00000000000000000000000000074B24E7A12
:1001000000200420F7010010C3010010C5010010F9
:10011000C1010010C1010010C1010010C101001097
:10012000C1010010C1010010C1010010C701001081
:10013000C1010010C1010010C9010010CB01001065
:10014000CD010010CD010010CD010010CD01001037
:10015000CD010010CD010010CD010010CD01001027
:10016000CD010010CD010010CD010010CD01001017
:10017000CD010010CD010010CD010010CD01001007
:10018000CD010010CD010010CD010010CD010010F7
:10019000CD010010CD010010CD010010CD010010E7
:1001A000CD010010CD010010CD010010CD010010D7
:1001B000CD010010CD010010CD010010CD010010C7
:1001C00000BE00BE00BE00BE00BE00BEEFF3058054
:1001D000103800BEF2EB887198DC0010C0DC001013
:1001E0003402001090A31AE700201F49086006C8D7
:1001F00081F3088810471D48006800282FD10DA4FE
:100200000ECC002902D000F012F8F9E71849194A7B
:10021000002000E001C19142FCD1174988471749ED
:1002200088471749884700BEFDE701C901C29A42C5
:10023000FBD37047C0DC0010C000002094170020E2
:1002400094F30010000004200000042094F3001038
:10025000001004200010042000000000704709482E
:1002600005F026FE0047000008ED00E0000000D089
:1002700098170020102900202D4500104508001077
:10028000554600105756000006005250ABB360535D
:10029000B0D2001006005250861C0302C0D20010DB
:1002A000060052505422A29DC8D2001005005250A0
:1002B000DE65F46894F30010F8B5C04606480749B7
:1002C000091A8B10C90FC91810B5491003D0044B77
:1002D000002B00D0984710BD9417002094170020E1
:1002E00000000000054B10B5002B03D00449054861
:1002F00000E000BFFFF7E2FF10BDC04600000000B5
:10030000A427002068CC00100122024B01201A70A3
:100310007047C046032900200122024B0020002123
:100320001A7070470C2900200122024B0020002186
:100330001A7070470229002070B51048104C4368AD
:100340008268006882B00F490090200005F04AFDE5
:1003500020000BF0BBF80C4D0C4E431C220029680A
:10036000300001F097FE20000BF0B0F82B6801334D
:100370001B1801202B6002B070BDC0465C2200201B
:100380006423002068CC0010280F00207C27002068
:1003900070B50A2800D070BD2D25124C200001F048
:1003A000F5FC635D002B0CD12C23E25C002A04D009
:1003B0000022E2540C4B01321A70200001F0AEFC16
:1003C000E9E7200001F0A2FA200001F0A7FAD0230B
:1003D00002221B069A61054B013A1A7000236355ED
:1003E000E2E7C046D82700200B290020C80F0020D4
:1003F000F0B55B488BB006F0BDFE5A4E00203100D0
:100400000AF0BAFF584D040029000BF017F8002835
:1004100000D178E0554D200029000BF00FF800289E
:1004200057D0200052490BF009F8002800D081E095
:1004300031000AF0A1FF642403784278303B5C432A
:100440008378303A303BE41893009B185B00E41843
:100450002100484806F08EFE04AA1100464B61CBED
:1004600061C121CB21C11B78444D0B702968152334
:10047000434801F00FFE2B68012015332B6000F07C
:1004800095FD404B1D6803F0F7F9FA220600600164
:10049000001B800000190F00002392000021C00003
:1004A00006F014FC0B000200802192197B41090622
:1004B0008B4202D30122344B52420121029100218E
:1004C000019132492800009102F0AEFE304B1860D5
:1004D00017E0280006F05CFD04AA11002D4B31CB7B
:1004E00031C111CB11C11B78244C0B70216815232D
:1004F000234801F0CFFD236801201533236000F06D
:10050000FFFD0BB0F0BD280006F042FD04AA11006B
:10051000214B31CB31C111CB11C1184C14232168AF
:10052000174801F0B7FD236801201433236000F061
:100530003DFDE6E7194806F02BFD04AA1100184B13
:1005400031CB31C111CB11C11B780C4C0B70216820
:1005500015230B4801F09EFD236815332360D0E777
:1005600074CC0010180F002084CC00108CCC00102C
:1005700094CC00109CCC0010B4CC0010280F0020AC
:100580007C270020F8280020FFFFFF7F29030010B0
:10059000F4280020CCCC0010E4CC0010ACCC00102F
:1005A000F8CC0010F0B5DE4657464E464546E0B55D
:1005B00085B000246B460B22DC72984B42211868F0
:1005C0006A440123009409F0A3F90100831C13D0AD
:1005D0006B46DB7AFF2B08D0914D924E29784A1C4E
:1005E000D2B22A7073540A2B0AD005B0F0BCBB46B5
:1005F000B246A946A046F0BD8B4806F0BBFDF4E725
:10060000023130002970B4540AF060FF052802D985
:10061000F378472B02D000232B70E6E73379472B82
:10062000F9D17379412BF6D1804F2C213000002471
:100630003E600AF005FE002800D1E8E004702C219D
:10064000013078600AF0FCFD002822D004702C21D3
:100650000130B8600AF0F4FD00281AD004702C2193
:100660000130F8600AF0ECFD002812D004702C2153
:10067000013038610AF0E4FD00280AD004702C2112
:10068000013078610AF0DCFD002802D004700130EE
:10069000B86178680378002B00D1BCE00A2203A976
:1006A0000AF0C2FD6249060005F05CFC614C60493D
:1006B000A060300005F056FC0800642105F052FCF3
:1006C00064216060300005F04DFC21605A4E22002C
:1006D000330013CA13C313CA13C313CA13C303CA01
:1006E00003C33B69554C9946002300229A46A360F8
:1006F0000023226063604B46002B16D01B78002B32
:1007000013D02E2148460AF09BFD00280DD0831EF1
:100710009846180009F044F943465246206061604B
:1007200048461A7009F042F9A0607B69002B5ED040
:100730001B78002B0AD0532B08D061D8452B05D04D
:100740001A004E3A51424A415242134030001022A0
:1007500021003030237306F04DFBBB689946384BBF
:10076000984600239A464346524641469A600023E3
:1007700000220A604B604B46002B18D01B78002BE0
:1007800015D02E2148460AF05BFD00280FD0831EAD
:1007900018009B4609F004F9434652461860596018
:1007A0005B4648461A7009F001F943469860FB68B9
:1007B000002B1AD01B78002B0AD0532B08D018D846
:1007C000452B05D01A004E3A51424A41524213403D
:1007D0003000102241464030237306F00BFBB8690D
:1007E00009F0E4F85023F05415E70023F0E7002364
:1007F000ACE71A00573A51424A4152421340E7E7E8
:100800001A00573A51424A41524213409EE77868D3
:10081000002800D03EE7074C58E7C046240F0020D0
:100820000A2900200023002058CD0010CC280020E9
:10083000102700005C220020C0170020481900206B
:1008400020190020F0B5DE464E4645465746E0B535
:10085000B3B006F09BFC01220821E04B0A2001F016
:10086000AFFE0D2001F00EFFD024802324069B0153
:1008700063621120636101F005FF80239B02A36284
:10088000122001F0FFFE8023DB02A362D44BD54986
:10089000186809F015F80321142001F03DFE03212A
:1008A000152001F039FE042002F084FCCE4B002418
:1008B00018600420259302F07DFCCC4B1860CC48D6
:1008C00002F0DCFECB4B1800994601F0DBF8CA4D74
:1008D000280001F081FC052000F024FB012000F03D
:1008E0000FFC02F063FCC54BC54A0293C54B019453
:1008F000009301235B4202F057FD002800D161E123
:1009000002F054FCC04BBE4A0293C04B01940093CA
:1009100001235B4202F048FDA04200D152E10121D7
:10092000BB4803F055FD03F0E5FDA04200D165E2B0
:10093000B84806F02DFB484600F0F0FF02F09CFF9F
:10094000002900D164E2FA220023920005F048FB5E
:100950000200B14CB14E2000310005F043FA2000F6
:100960000AF0B4FDAE4A431C904641462200096895
:10097000280001F08FFB20000AF0A8FD4346424604
:100980001B6801331B18136002F076FF002900D1A9
:1009900038E2FA220023920005F022FB0200310027
:1009A000200005F01FFA20000AF090FD41462200C9
:1009B000431C0968280001F06DFB20000AF086FD49
:1009C00043461968974E013109181960964B280063
:1009D0001A001593022301F05DFB434642461B6853
:1009E000924C02331360924B1093924B1E93924B96
:1009F0001F93924B1A93924B1B93924B1293924BD1
:100A00001C93924B1D93924B2093924B0A93924BC3
:100A10009A46924B1793924B1893924B1993924B81
:100A20002193924B2993924B2B93924B2A93924B67
:100A30002693924B2793924B2893924B0D93924B74
:100A40000B93924B2493924B1693924B2293924B7F
:100A50000C93924B2393924B0E93924B0F93924B8A
:100A600011931394149221E00D9B1B78002B04D05A
:100A70000B9B1B78002B00D08DE10C9B1B78002B6F
:100A800004D00B9B1B78002B00D06BE10E9B0F9FBB
:100A90001B783B78002B07D0119806F079FA0120DB
:100AA00000F02EFB00233B70FFF77CFD03F086FC7B
:100AB000002006F073FB109BC0B21870642800D1B0
:100AC000FCE00A9B1B78002BCED06422514648469E
:100AD00001F0E8F9504606F05BFA744B2C212C9398
:100AE0000023149F22AA5218137039682CAA0533C8
:100AF000280001F0CFFA3B685046053398463B602A
:100B00000AF0E4FC4146431C5246280001F0C2FAB8
:100B100050460AF0DBFC3968159A013109180223A6
:100B20002800396001F0B6FA3B68484602333B6062
:100B300001F020FA4B464A4649465B6B926B096BC3
:100B4000179806F017FB189950460AF015FC1999EA
:100B500080460AF073FC002800D138E14046219914
:100B60000AF06CFC002806D0404629990AF066FC81
:100B7000002800D12EE153461B78612B00D1E6E01E
:100B8000269806F005FA259B1B68984602F074FE2D
:100B90000023474A12184B41802109068B4202D399
:100BA0000122444B524201210291002101912799D7
:100BB0004046009102F038FB289B186000230A9AF7
:100BC000137051E73C4806F0E3F90120404233B08E
:100BD000F0BCBB46B246A946A046F0BD910300104A
:100BE000240F0020A086010028210020F8280020E2
:100BF00088130000D82700207C270020581B0020E5
:100C000000796CFC09030010301900203903001032
:100C100020BF02008CCD001064230020B0CD001056
:100C2000280F002001000200200F002006290020CC
:100C3000FF280020B4CD0010C0CD0010CCCD001096
:100C4000ECCD00102C0F0020FCCD001048CD001082
:100C500010CE00100B2900201828002050CE0010C4
:100C6000180F0020A8CE001020CD001024CD0010B9
:100C700038CD001028CD00107CCE001019030010D4
:100C8000242100200C290020C80F002090CE001045
:100C900010CD0010500F002003290020640F002009
:100CA0000129002002290020A0CE001072783A20ED
:100CB00060E31600FFFFFF7F78CD00109130FF301A
:100CC00002F0DCFC1E9A1F991A9806F053FA296A62
:100CD0001B9806F04FFA1423129F07930C373A0023
:100CE0006B460697089513CA13C313CA13C3129B06
:100CF00000200ECB01F0CAFA39001C9806F03AFA2F
:100D00001D9806F045F9002380279B46139CBF01E0
:100D100003F054FB012322003900280001F086F97A
:100D20002078002807D10137B742F1D120981394D9
:100D300006F02EF9C5E606F0DFF85B4601372370B2
:100D4000B742E5D12098139406F022F9B9E653464C
:100D50005B78632B00D013E753469B786B2B00D155
:100D60002CE70DE7169806F013F9D02302221B0694
:100D70005A610023984642460B9B239C1A7021001F
:100D80006432484600F05CFD200006F001F942465E
:100D90000C9B1A707AE6249806F0FAF8169806F07A
:100DA000F7F8D02302221B065A61002398464246D8
:100DB0000B9B229C1A7021001232484600F040FD25
:100DC000200006F0E5F842460D9B1A7055E6FFF745
:100DD0000FFBD0E62B9A2EAB13CA13C312881A80CE
:100DE0002A9806F0D5F8149C0E23280021682EAA14
:100DF00001F050F923680E332360BCE6074806F083
:100E0000C7F898E5FA21890005F0ACF80200C6E5BC
:100E1000FA21890005F0A6F802009AE5A4CD001099
:100E2000FE2270B50826134B1921D2011A241B206B
:100E30009A6200225E6102369E610136DE610E4DCD
:100E4000023E59601E62013904361D6019619C60C2
:100E5000D8605E629A879A85084B1D601D251961CE
:100E6000E7315D60DA619C60D860596199611A620E
:100E700070BDC046D8270020000004407C27002019
:100E800070B51E4D00210400286801F05DFB0121B2
:100E90001B4B08001A6893009B181A4A9B00944643
:100EA00063441A6890438022520113431860164B22
:100EB0001B68A3421ED3154B1B689C421AD328689B
:100EC0000207520F93009B18114A9B00944622047C
:100ED0006344120C01420AD10E4918684240114085
:100EE00080225201134319600B4B1C6070BD0B49EB
:100EF0001204F2E70A4806F04BF8F7E7D42700207F
:100F00009428002000000540D00F0020CC0F0020C6
:100F10000C000540FFFF0000582200200000FFFFEA
:100F2000B0CE001070B507251A4E1B4C43082B405D
:100F300004213060236001F0EFFA80202368400133
:100F40009A00D218154B04009C460223920062447A
:100F5000116814438B432360B0235B005360104B34
:100F6000136133680F4E59080D40A90049190E4D01
:100F70008900AC4601256144B4462B40013BDB03AC
:100F80000E68DB0B634433400843036013689D43E2
:100F9000256070BDD4270020942800200000054063
:100FA0005FEA00000000FFFF0C000540F0B5574667
:100FB0004546DE464E46E0B5474B484D9A462C68BE
:100FC0001B6883B001909C4264D3454E3068A042B8
:100FD0004ED9444B9946444B9B460123984607E023
:100FE00003202C6002F04AFB2C68306884423FD218
:100FF0004B460021186801F0A7FA5B461A68414683
:1010000093009B18394A9B00944663441A689143A5
:101010000A00802149010B431A603268A24255D36D
:1010200053461B68A34251D84B461968072348080A
:10103000184083001B182E48474684469B00200416
:101040006344000C0F4223D02A4900041F687840F3
:101050000140802040010343196001349442BFD312
:1010600003202A6002F00AFB2C6830688442BFD358
:10107000FFF706FF019B002B13D1FA20800002F03E
:10108000FDFA03B0F0BCBB46B246A946A046F0BD8F
:101090001949DBE7FA2080002B6002F0EFFA2C6898
:1010A00093E7104B0221186801F04EFA0E4B012114
:1010B0001A6893009B180D4A9B00944663441A6873
:1010C00011408022520113431960D6E70B4805F006
:1010D0005FFF2C683268C0E7CC0F00205822002048
:1010E000D00F0020D42700209428002000000540C5
:1010F0000C0005400000FFFFFFFF0000B0CE001015
:10110000F0B557464546DE464E46E0B5474B484D9E
:101110009A462C681B6883B001909C4264D8454E67
:101120003068A0424ED2444B9946444B9B46012323
:10113000984607E003202C6002F0A0FA2C68306883
:1011400084423FD94B460021186801F0FDF95B4607
:101150001A68414693009B18394A9B0094466344A1
:101160001A6891430A00802149010B431A605346D3
:101170001B68A34254D33268A24251D84B46196827
:1011800007234808184083001B182E48474684460A
:101190009B0020046344000C0F4223D02A49000422
:1011A0001F68784001408020400103431960013CE2
:1011B0009442BFD803202A6002F060FA2C6830689D
:1011C0008442BFD8FFF75CFE019B002B13D1FA20AD
:1011D000800002F053FA03B0F0BCBB46B246A94609
:1011E000A046F0BD1949DBE7FA2080002B6002F031
:1011F00045FA2C6893E7104B0221186801F0A4F916
:101200000E4B01211A6893009B180D4A9B009446CF
:1012100063441A6811408022520113431960D6E7D3
:101220000B4805F0B5FE2C683268C0E7D00F0020EF
:1012300058220020CC0F0020D42700209428002022
:10124000000005400C0005400000FFFFFFFF00000C
:10125000B0CE0010F8B50123474698464246436891
:10126000CE469A401300D0220500120680B5914662
:1012700093611849012200680BF0BEFC164C174E12
:1012800022003100012328680BF0BEFC21781448AD
:1012900005F070FF22003100012328680BF0B4FC38
:1012A000104F2178380005F065FF310022002868D2
:1012B00001230BF0A9FC42466B6838009A401300EA
:1012C0004A465361217805F055FFC0BCB946B04687
:1012D000F8BDC046F0D4001008290020F5D4001055
:1012E000D0CE0010DCCE0010F8B5CE46474680B513
:1012F0000127050040220721234805F03BFF3A0063
:101300006B68224C9A401300D0221206914628683E
:1013100093611F49220001230BF076FC220028680C
:1013200001231C490BF070FC2200286801231A4994
:101330000BF06AFC194E22003100012328680BF0E3
:1013400063FC2178164805F015FF2200310028685B
:1013500001230BF059FC134B21789846180005F037
:1013600009FF31000123220028680BF04DFC4046A4
:10137000217805F0FFFE6B689F404B465F61C0BC63
:10138000B946B046F8BDC046E8CE00100829002096
:10139000F6D40010F4D40010F3D40010F5D40010EB
:1013A000D0CE0010F4CE001070B504000126254800
:1013B00005F0EEFD606801F065F932006368D02544
:1013C0009A402D066A62206A6A6101F05BF9320078
:1013D000236A60699A406A626A6101F053F93200D7
:1013E0006369E0699A406A62AA6101F04BF9E369B6
:1013F00020689E401449AE6208F05AF9C0210220CC
:10140000236889011D1D29435A6808601968024034
:1014100005304140C8300840802149010B43186025
:1014200080239B012B431A60A068012101F074F80E
:10143000E068012101F070F80121206901F06CF8E9
:1014400070BDC04600CF001020A10700F0B54F4688
:10145000D6464646C0B582B001AB9A4604235246F2
:10146000137001336B44994607234A461370013BBE
:101470006B4498460023424613706B46DF1D0123E0
:101480003B702933C35C0400002B28D101252A00BE
:101490006368D0269A403606B2611349012220685B
:1014A0000BF0AAFB5146012220680BF0A5FB494630
:1014B000012220680BF0A0FB4146012220680BF0BE
:1014C0009BFB0122390020680BF096FB63689D406E
:1014D000756102B0E0BCBA46B146A846F0BD03480B
:1014E00005F056FDD2E7C046EDD400102CCF001019
:1014F00070B501250400174B82B0174917480193B6
:1015000005F038FE2A006368D0269A403606B2619C
:101510001349012220680BF06FFB01A9012220680A
:101520000BF06AFB6B460122591D20680BF064FB2F
:101530006B460122991D20680BF05EFB6B46012271
:10154000D91D20680BF058FB63689D40756102B09F
:1015500070BDC04639300000C0CA893640CF001087
:10156000ECD40010F0B5D6464F464646C0B582B022
:1015700001AB9A460B2352461370063B6B449946C7
:1015800003234A46137003336B44984604234246B0
:10159000012513706B462A00DD71DF1D4368D026DC
:1015A0009A4004003606B2611049012200680BF02F
:1015B00023FB5146012220680BF01EFB4946012205
:1015C00020680BF019FB4146012220680BF014FB48
:1015D0000122390020680BF00FFB63689D407561A4
:1015E00002B0E0BCBA46B146A846F0BDE8D400104F
:1015F000F0B5DE4657464E4645460223E0B583B079
:101600006B449B4600235A46137003226A44924659
:101610000F2251460A7001AA9146137005226A44AE
:1016200090466422414601250A706A4604001D481E
:10163000971D9571D37105F0ABFC2A006368D02625
:101640009A403606B2611849012220680BF0D4FA9C
:101650005946012220680BF0CFFA5146012220683A
:101660000BF0CAFA4946012220680BF0C5FA414640
:10167000012220680BF0C0FA3900012220680BF02B
:10168000BBFA6B460122D91D20680BF0B5FA6368DE
:101690009D40756103B0F0BCBB46B246A946A0466A
:1016A000F0BDC0465CCF0010E4D40010F0B5DE46BB
:1016B00057464E4645460223E0B583B06B449B46F1
:1016C00007235A46137003226A4492464022514629
:1016D0000A7001AA137090466A463A3353713B3B35
:1016E0006B44994634234A4613706A461033D371CB
:1016F0001A3BC35C0400002B46D101252A00636815
:10170000D0269A40224F36063900B2612068012265
:101710000BF072FA5946012220680BF06DFA51461F
:10172000012220680BF068FA4946012220680BF07C
:1017300063FA2A0063680A209A40726101F09EFFF2
:101740002A00636839009A402068B26101220BF0D8
:1017500053FA4146012220680BF04EFA6B460122F3
:10176000591D20680BF048FA6B460122D91D2068EC
:101770000BF042FA63689D40756103B0F0BCBB4654
:10178000B246A946A046F0BD024805F001FCB4E708
:10179000E7D4001098CF0010F0B54F46D646464625
:1017A000C0B582B001AB9A46072352461370023B84
:1017B0006B44994601234A46137005336B4498469F
:1017C0000223424613706B46DF1D80233B70563B5D
:1017D000C35C0400002B2BD101252A006368D026AE
:1017E0009A403606B2611449012220680BF004FACF
:1017F0005146012220680BF0FFF94946012220687A
:101800000BF0FAF94146012220680BF0F5F90122AC
:10181000390020680BF0F0F963680A209D4075617B
:1018200001F02CFF02B0E0BCBA46B146A846F0BDBC
:10183000024805F0ADFBCFE7E2D40010C0CF0010A6
:10184000F0B5012516002A00C6464369D0279A4004
:1018500000B5282382B03F06BA616A46C35C040023
:101860008846D371FF2E16D82A00436824499A402F
:101870000068BA6101220BF0BFF96B460122D91D45
:1018800020680BF0B9F93200414620680BF0B4F93A
:1018900063689D407D6105236B4498460023424662
:1018A00013706A46D37193712A33E35C971D002B42
:1018B00022D101252A006368D0269A403606B261FB
:1018C0001049012220680BF097F941460122206857
:1018D0000BF092F93900012220680BF08DF96B466C
:1018E0000122D91D20680BF087F963689D4075615E
:1018F00002B080BCB846F0BD034805F049FBD8E70C
:10190000E9D40010E6D40010B0CF001001234269E2
:101910009340D022120653617047C046F0B5474647
:10192000CE46052380B583B06B449946FF234A46D3
:10193000137006226A44137090466A46D371D53BF1
:10194000C35CD71D0400002B22D101252A00636847
:10195000D0269A403606B2610F49012220680BF06A
:101960004BF94946012220680BF046F94146012215
:1019700020680BF041F90122390020680BF03CF996
:1019800063689D40756103B0C0BCB946B046F0BD08
:10199000024805F0FDFAD8E7E0D4001014D000109A
:1019A000F0B5DE4657464E464546E0B583B0FF23C8
:1019B0006A46137001226A441370FD3B6B449A46D9
:1019C000934600235246137003226A449146032231
:1019D00049460A7001AA0400137090466A4601261F
:1019E000806953719371D371571D00F04BFE012232
:1019F0000821A06900F0BAFD204805F0C9FA3200BC
:101A00006368D0259A402D06AA611D4901222068ED
:101A10000BF0F2F86946012220680BF0EDF8594608
:101A2000012220680BF0E8F85146012220680BF0F3
:101A3000E3F84946012220680BF0DEF84146012216
:101A400020680BF0D9F83900012220680BF0D4F897
:101A50006B460122991D20680BF0CEF86B460122DF
:101A6000D91D20680BF0C8F863689E406E6103B012
:101A7000F0BCBB46B246A946A046F0BD40D000101F
:101A8000DFD40010F0B5C646040000B5924882B01D
:101A900005F07EFA606A1D2800D900E101272000C8
:101AA000FFF782FC3A006368D0259A402D06AA61B0
:101AB0008A49012220680BF09FF80122884920689A
:101AC0000BF09AF8874E0122310020680BF094F851
:101AD0000122310020680BF08FF8012231002068CC
:101AE0000BF08AF83A00636820009A406A61FFF7B9
:101AF00053FE6B46DD1D2A232F70E35C002B00D0C4
:101B0000E6E001273A00636877499A401300D02243
:101B1000120693619046206801220BF06DF80122B5
:101B2000290020680BF068F83A00636820009A40AA
:101B3000130042465361FFF733FF2A232F70E35C03
:101B4000002B00D0C0E001273A00636867499A4043
:101B50001300D022120693619046206801220BF0F8
:101B60004BF80122290020680BF046F83A00636820
:101B70009A401300424653612A22A25C002A00D0F8
:101B80009BE0D022120693619046594901222068B9
:101B90000BF032F8574F01233A00310020680BF068
:101BA00033F801233A00310020680BF02DF80123AF
:101BB00062682000934042465361FFF74BFB2A23A3
:101BC000E35C002B00D074E0012632006368D0276C
:101BD0009A403F06BA614849012220680BF00CF890
:101BE0004649012220680BF007F8320063682000A4
:101BF0009A407A61FFF77CFC2000FFF727FC062360
:101C00006B4498461623424613703200123B2B70E9
:101C100063683B499A402068BA6101220AF0ECFFF0
:101C20004146012220680AF0E7FF290001222068CE
:101C30000AF0E2FF3200636832499A4020687A6114
:101C4000BA6101220AF0D8FF210001222068283160
:101C50000AF0D2FF21000122293120680AF0CCFFCE
:101C6000636820009E407E61FFF77CFC2000FFF748
:101C7000BFFC2000FFF71AFD0F2301222B70224921
:101C800020680AF0B9FF0122290020680AF0B4FF99
:101C90002000FFF729FB02B080BCB846F0BD00F081
:101CA000F1FC0123626A9340D02212065362536111
:101CB000F4E6164805F06CF986E7154805F068F972
:101CC00063689F403B005CE7124805F061F93AE722
:101CD000114805F05DF914E754D00010F1D400105C
:101CE000F2D40010F5D40010E5D40010E1D40010B7
:101CF000E3D4001008290020EFD40010EED4001027
:101D0000EBD40010EAD40010DAD4001010CF001089
:101D1000FCCF0010DCCF00107CCF0010F0B5C64621
:101D2000062300B582B06B449846FF2342461370E9
:101D30006A46D371D53BC35CD71D0400002B1CD170
:101D400001252A006368D0269A403606B2610D4903
:101D5000012220680AF050FF4146012220680AF063
:101D60004BFF0122390020680AF046FF63689D405E
:101D7000756102B080BCB846F0BD034805F008F9B3
:101D8000DEE7C046DED4001068D00010F0B5C646CD
:101D9000062300B582B06B449846002342460126D4
:101DA00013706A46D37132004368D0279A4004000A
:101DB0003F061649BA61006801220AF01DFF144D62
:101DC0000122290020680AF017FF0123424629005A
:101DD00020680AF019FF6A460123073229002068AB
:101DE0000AF012FF320063689A406B467A61DB7931
:101DF0001E4201D02D22A6549B0702D52C2301227E
:101E0000E25402B080BCB846F0BDC046DCD400103D
:101E1000F5D40010F8B52A23C35C0400002B27D1A9
:101E2000012632006368D0279A403F061849BA61FC
:101E3000206801220AF0E0FE164D012229002068E8
:101E40000AF0DAFE2200012329003C3220680AF061
:101E5000DBFE22000123290020683D320AF0D4FE77
:101E600063689E402A237E61E35C002B04D1F8BDA9
:101E7000094805F08DF8D3E73C230848E15C05F0FC
:101E800079F93D230648E15C05F074F9EFE7C046B7
:101E9000DBD40010F5D4001078D0001094D00010DE
:101EA000A8D00010F8B5CE46474680B5160005000C
:101EB0000C00FFF7AFFFFF2E4CD83C23EB5CB34286
:101EC00048D8264805F064F80123984642466B68D6
:101ED000234F9A401300D0221206936191460123AA
:101EE0003A00204928680AF08FFE29003A000123B1
:101EF0003D3128680AF088FE1B493A000F00012393
:101F000028680AF081FE33002200390028680AF0B0
:101F10007BFE42466B689A4013004A4653612A236F
:101F2000EB5C002B04D10020C0BCB946B046F8BD24
:101F30000E4805F01FF9002E08D00D4DA619217886
:101F40002800013405F016F9A642F8D10A2004F061
:101F5000D3FFE8E701204042E6E7C046BCD00010CE
:101F600008290020DDD40010F5D40010D4D00010D2
:101F7000E4D00010F0B5D6464F464646C0B582B014
:101F80006B46D91C142301270B7000233A0001AEC5
:101F90003370436804009A401300D0221206924620
:101FA0009361006801220AF027FE1F4D32002900CC
:101FB000012320680AF028FE05236B449846290077
:101FC0004246012320680AF01FFE06236B4499460F
:101FD00029004A46012320680AF016FE6B46DE1DE2
:101FE00032002900012320680AF00EFE63689F403A
:101FF00053465F614B461A783423E25443461B78BC
:10200000626B5B105B4223630323D1170B409B1869
:102010009B10636333785B105B42A36302B0E0BC48
:10202000BA46B146A846F0BDF5D40010F0B5CE468C
:102030004746012580B517002A0083B001AE9846B7
:102040000B0C33700B0A7370436804009A40130042
:10205000D02212069146B170006893610C490122AA
:102060000AF0CAFD3100032220680AF0C5FD43468C
:102070003A00002120680AF08FFD636800209D402F
:102080004B465D6103B0C0BCB946B046F0BDC0462A
:10209000F9D40010F0B501254F4691462A00464676
:1020A00098464368D6469A401300D022C0B5040033
:1020B0001206924682B093610F0001223E490068E9
:1020C0000AF09AFD2A00636801AE9A401300524656
:1020D0003A49536120683570936101220AF08CFD02
:1020E00001233200002120680AF056FD29006368B0
:1020F000994053465961307843B2DB119A46C31078
:102100002B401B029C465346421080102A402B4015
:10211000054060462D0403432B4310060343E3614F
:10212000002A44D080239B029F423CD84246BA18E2
:102130009A4227D83B0C3370B7703B0AD0273F0632
:1021400073700122B96120681D490AF055FD050030
:1021500001281AD10322310020680AF04DFD03281E
:1021600019D14246494620680AF046FD404516D13D
:10217000636800209D407D6102B0E0BCBA46B14674
:10218000A846F0BDDB1B9846D4E70E4804F0F2FFEA
:1021900001204042F0E70C4804F0ECFFF8E70B4860
:1021A00004F0E8FFF4E70A4804F0E4FFF0E7094828
:1021B00004F0EEFEECE7C046FCD40010FAD40010A8
:1021C000F8D4001014D1001030D1001050D10010FC
:1021D00000D10010E8D0001070B5040001260121E4
:1021E000806800F099F90121E06800F095F901217B
:1021F000206900F091F9606800F044FA32006368E9
:10220000D0259A4060692D066A626A611D2826D928
:10221000A0691D282CD9012500232A0023626368A8
:10222000D0269A403606B2611649012220680AF08B
:10223000E3FC220004230021206820320AF0ACFCD9
:102240002A00636810499A4020687261B2610122D5
:102250000AF0D2FC636800209D40756170BD00F0FB
:1022600011FA6369A0699E406E62AE611D28D2D8E2
:1022700000F008FA0123A2699340D02212065362AB
:102280005361C8E7F7D40010FBD4001084B010B538
:10229000059303AC4300039104928000195B24185A
:1022A00062680D9B9A4208D80C9A0E98FFF7BEFE02
:1022B000002010BC08BC04B018471900024804F004
:1022C00059FF01204042F4E764D10010D0231B06DF
:1022D0001B688D4A9900F0B54E46894651585A42BE
:1022E00053412F2257464546DE465B42934398466C
:1022F000864BE0B59C4683B000270191E04400295D
:1023000035D0834B0F269B464246FB0808339B0083
:102310009C5801233D009A460837002C1ED03100FE
:102320002140264214D05B464A469A585346AB4059
:102330001A420DD1072208002A4092009040020064
:10234000EB0874483C339B001A502800019B9847C7
:1023500024090135002C01D0BD42E0D3202FD3D178
:1023600003B0F0BCBB46B246A946A046F0BD684BE0
:1023700000210F229B460124CD082B004046083344
:102380009B001B5808000831002B00D19DE017006E
:102390001F40BC461A420BD05F464E46BE5927002E
:1023A00087403E4204D166465A4F3C35AD00EE515F
:1023B0001D0900D189E017002F402A4211D02600C4
:1023C000451CAE400195B4465D464E46AE59654645
:1023D0002E4206D1019D4F4EED083C353F01AD0028
:1023E000AF511D0A71D017002F402A4211D026008C
:1023F000851CAE400195B4465D464E46AE596546D5
:102400002E4206D1019D434EED083C353F02AD0002
:10241000AF511D0B59D017002F402A420AD0260079
:10242000C51CAE400195B4465D464E46AE59654664
:102430002E424ED01D0C48D017002F40BC462A42D9
:1024400009D00126071DBE40B2464E46304DAD595B
:102450005646354245D01D0D37D016002E40B446A5
:102460002A4209D00126471DBE40B2464E46284D9D
:10247000AD59564635423ED01D0E26D016002E4090
:10248000B4462A4210D00126871DBE40B2464E46B1
:102490001F4DAD595646354206D16646FD083C35BE
:1024A00037061C4EAD00AF511B0F0730002B0CD070
:1024B0004D465E467759250085402F4205D1C0081C
:1024C000144D3C301B0780004351202900D053E7B6
:1024D00046E7019D0F4EED083C353F03AD00AF517F
:1024E000A8E765462D04AC466646FF083C37BD00AC
:1024F000084FEE51AFE76646FD083C353705054EFF
:10250000AD00AF51B8E7C0463C2200203041014049
:102510007C28002000400140094A10B59446402420
:10252000830063441A68C0006240803414408022F3
:10253000520113431C60034B9C466044416010BD34
:1025400004C0014000400140074BC0009C4660446D
:10255000036809025940C0239B00194080235B0196
:10256000034319607047C04604400140D0231B0656
:102570001B6830B50500584243412F205B4283431E
:102580000D48EC0884460720284080008140200048
:102590000A4D3C3063448000A40041511B19002ABD
:1025A00004D0802292011343196030BDC0229201F1
:1025B00013431960F9E7C046304101400040014033
:1025C000F8B51D00D0231B061C680600604244417C
:1025D0002F20644284432748F70884460720304070
:1025E000800081403800244E3C3064448000BF00AD
:1025F0008151E419002A11D08022920122431160F6
:102600001C681E4EA400A359002B15D0002D25D008
:10261000A55101210D2000F0F7F8F8BDC02292016C
:10262000224311601C68154EA400A359002B0CD046
:10263000002D18D0A551F0E7002DEAD000220D2082
:102640000F49A55100F042F9E3E7002DE5D0002243
:102650000D200B49A55100F039F9DEE70D2008499E
:1026600000F02EFAD4E70D20054900F029FAA55113
:10267000D3E7C04630410140004001403C220020E9
:10268000CD2200100123D022834012069362936171
:10269000094A40219446830063441A68C0004A40B6
:1026A000803111408022520113431960034B9C4634
:1026B000052360444360704704C00140004001406E
:1026C000024B18688007C00F7047C04600C0064024
:1026D00070B5EFF3108C72B60D4D2B68002BFCD04B
:1026E000BFF35F8F0724CB08C618C05C01230C40E2
:1026F000A3401C000440034207D118433070BFF3CD
:102700005F8F2C608CF3108870BD100001F0C2FF49
:102710002C0100D0F8B54746CE46884680B5EFF389
:10272000108C72B6214D2C68002CFCD0BFF35F8F4B
:102730009A422CD8D4080727055D061901241740B2
:10274000BC402C421FD007210127894609E0D4084C
:10275000055D06194C4639001440A1400C00294281
:1027600011D001329342F2D201204042BFF35F8F79
:1027700000220E4B1A608CF3108800280FDBC0BCBF
:10278000B946B046F8BD254310003570EEE7BFF3FB
:102790005F8F00232B608CF310880120404243465A
:1027A000002BECD0089801F075FFC0462C0100D03A
:1027B0000021044B044ABFF35F8F02C39342FAD156
:1027C0007047C046000100D0800100D0044A107854
:1027D000431CDBB2172B00D9102313707047C0467F
:1027E000D40F002010B5064B064C82B001000093B8
:1027F00018221F232000FFF78DFF02B010BDC04636
:10280000A4D100105422002001238340002904D0C9
:10281000034A1360034A13607047034A1360FBE7DF
:1028200080E200E000E100E080E100E0012383407D
:10283000014A13607047C04600E200E0084B1030C8
:102840009B688000C358002B07D0064A00209B1AC3
:102850002F229A424041C0B270470020FCE7C04698
:1028600000ED00E0D80F0020024B10309B68800084
:10287000C058704700ED00E070B50D00EFF3108612
:1028800072B60F4A1368002BFCD0BFF35F8F0D4B5D
:1028900010309B6884001B590B4A934203D09D4221
:1028A00001D001F00FFF074B9B681D51BFF35F8FF5
:1028B000BFF35F8F0022024B1A6086F3108870BD51
:1028C000240100D000ED00E0CD010010F0B5574626
:1028D0004E46DE464546E0B585B00600009117003D
:1028E000EFF3108B72B66A4A1368002BFCD0BFF36B
:1028F0005F8F0025674B5D579A46002D00DAA9E0EF
:102900006B00654C01935B199B009846A146C1443E
:102910004B4652469B7910361370604BB6009B684D
:1029200099590B1B2F2B33D95D4B994200D0ACE04A
:10293000019B42469C465B4B6544AD0063535A4B3A
:102940000232A218043B9B1A1B05584A5B0D6519FD
:1029500013436B80564B0121AB80FF23AB71009B6F
:10296000EF71AB604B460B4319004C4B9B68995180
:10297000BFF35F8FBFF35F8F0022454B1A608BF36D
:10298000108805B0F0BCBB46B246A946A046F0BDD3
:1029900001200A008243D3798C46BB4231D8454698
:1029A000130044491B1B5B415943090D3D4B6353C5
:1029B0003D4B02356519043B5B1B1B053B4D5B0D15
:1029C0002B43AA464D466B800425AC465546E04451
:1029D000131F44441B1B1B055B0D1D434B46997184
:1029E00000999D8099604946DF71334B0143136024
:1029F000BBE75800C01880002018C179B9422FD910
:102A000002000623D356002BF3DA02932B4B6146C8
:102A10000393131D9A4604235B429C46E1445046AF
:102A20004B461B1A1B055B0D9C46204B9571984627
:102A30006346404603439380019B5A199200039BCF
:102A4000A418A380029B1C4AA371009B2260E7711B
:102A5000A3608AE701F036FE002553465D574FE735
:102A6000908802934005131D9A46031561469C46C3
:102A70004046D444634604302018181AE023000569
:102A8000400D1B0218430390C5E701F01BFE4FE702
:102A9000240100D004290020D80F002000ED00E020
:102AA000CD01001000A1FFFF0810002000E0FFFF93
:102AB00001BDFFFFAAAA00000148804701BD000038
:102AC000F0B5DE4657464E464546E0B50C0083B0AD
:102AD000EFF3108872B65D4A1368002BFCD0BFF389
:102AE0005F8F5B4B5B499A68030010339F00D55999
:102AF0008D4239D0A5424AD0574EAA1B2F2A33D82F
:102B000001229246824091464846544A126810403B
:102B100001904846524A1060BFF35F8FEFF3058281
:102B20009346002A35D0934201D001F0CBFD2A0014
:102B300053469A439068844208D175E04B005B1875
:102B40009B00F3189868A04234D01A000621515611
:102B50000029F3DA844253D0019B002B26D04A4649
:102B6000404B1A603D4B1A60394B9B68DD51BFF3F7
:102B70005F8FBFF35F8F0022344B1A6088F3108899
:102B800003B0F0BCBB46B246A946A046F0BD0D005E
:102B9000EAE72A0053469A4390688442D6D1062039
:102BA00010561300002809DA0D0031E04A462C4B7C
:102BB0001A60D9E706201856002822DB42001118B7
:102BC000890074188A46A1689960E179D971062153
:102BD00061569971002925DBA488F11A6405241532
:102BE00054440919E0240905490D24022143998020
:102BF00013181D4A9B001178F31899711070ABE7F8
:102C000013005946002914D1FF3191711749918061
:102C100015490A789A71164A9B1B5B415A43120D5B
:102C20000A7099E71349E2E70620105613000028BE
:102C3000C4DA114A1149D21A083A5002400D014330
:102C400099800F4952080A43DA8085E7240100D0B1
:102C500000ED00E0CD010010D80F002000E100E001
:102C600080E100E080E200E00429002001BDFFFFD8
:102C7000AAAA000001BD00001210002000F0FFFF12
:102C800000F8FFFF70B5EFF3058101240443EFF373
:102C9000108C72B6214A1368002BFCD0BFF35F8FF3
:102CA0001F4B05001F4AED1A6D416A43120D1E4D60
:102CB0008900AE6852B27658A6421CD006215956F9
:102CC00091421CD012215956914222D01E215956B0
:102CD000914220D02A2159560324914210D0134BFF
:102CE00019781A708171BFF35F8F00220B4B1A6045
:102CF0008CF3108870BDAB680D4C5C50EFE700247E
:102D00006100091989005B18FF21997109499980AF
:102D1000E5E70124F4E70224F2E7C046240100D0ED
:102D2000D80F0020AAAA000000ED00E0042900202E
:102D3000CD01001001BDFFFF054B064A1360064A96
:102D4000136053609360D360136153619361704764
:102D50008080808000E400E004E400E010B5084BCF
:102D6000084C82B001000093002205232000FFF7E9
:102D7000D1FC002801DB1F23181A02B010BDC04689
:102D8000C0D100100E290020024B9C4661448900EE
:102D9000016070474000003410B50400FFF716FDD5
:102DA00001002000FFF7F0FFFF232371BFF35F8FC7
:102DB00010BDC04610B50400FFF708FD010020005B
:102DC000FFF7E2FFFF23A380BFF35F8F10BDC04674
:102DD00010B504000120FFF705FD034BC3189B004D
:102DE0002360BFF35F8F10BD40000034034B9C464F
:102DF000614489000160BFF35F8F70474000003479
:102E000083680B4810B5844661446244120109018D
:102E100059189B185C684A680120944201D802D076
:102E20000020C0B210BD1A680B689A42F9D8F7E7C3
:102E3000FFFFFF0F10B508000B690C009847002832
:102E400002D02068616810BDE06000210020FAE730
:102E50000A4B1968EFF3108072B60A68002AFCD09A
:102E6000BFF35F8F1B68BFF35F8F00221A6080F390
:102E7000108840BF002000217047C04690280020E5
:102E8000F8B5574645464E46DE46E0B598460CAB8B
:102E90001C780DAB1B78070091469A460568002CFC
:102EA00059D1AC7B002C3BD0660029683619033E13
:102EB00089194B78AB73002B00D1EB7300238B7017
:102EC0004B700B702D4BE218BB6812019B184A46E1
:102ED0001A6042465A600A9A9A600B9ADA60002396
:102EE0008B704B700B706B7B9B46002B26D02200A7
:102EF0006B685946A86898475B465B005B442A6844
:102F0000033B002812D058469619B070D118D35CF4
:102F1000002B00D073705B460C706B735C450ED059
:102F2000F0BCBB46B246A946A046F8BDD3189C707B
:102F30009119925D002A1CD15B460B706C734A4656
:102F40004346387D00F02CFD051E0AD10E9B002B58
:102F5000E6D01D70E4E7660029683619033E89193A
:102F6000B0E75346002BF1D12100386800F060FF34
:102F7000ECE75A705B460B706C73E0E7FFFFFF0FE6
:102F8000F0B5DE4657464E4645460023E0B58BB0C9
:102F90000893684B8200D45800239B46099000F0A8
:102FA0006BFC02000B006068EFF3108A72B65646A5
:102FB00001680029FCD0B246BFF35F8F21684F7BC8
:102FC0008C46002F2ED0A5685B49A94679180901C7
:102FD000894449460868496805000E00AD1A9E41BB
:102FE000002E5FDD02000B00099800F0D9FC0023E1
:102FF00000229946002306920793002398466368AF
:10300000BFF35F8F5A461A608AF310884346002B3D
:1030100012D10028C3D10BB0F0BCBB46B246A946C2
:10302000A046F0BD00230022994600230692079394
:10303000002300209846E2E7089B494618023843DF
:10304000C047626805000E00EFF3108A72B613687D
:10305000002BFCD0BFF35F8F002E41DB2B003343EE
:1030600002D02369002B56D12368D97B002905D0D3
:103070001A68480041185218033A57709A7B002A80
:1030800000D19F73DF73E268013FD35D0133D355F5
:103090005B4623616368BFF35F8F5A461A608AF309
:1030A00010887CE7002E02D1002D00D09AE7002185
:1030B000604600F03BFE4B461A685B680692079339
:1030C0004B469B6898464B46DB689946E368DB199C
:1030D000013B1B7808931B020343236100208EE70A
:1030E0002369002BC0D0069A079B8021521BB34155
:1030F00009068B4202D30122104B52420021049157
:103100000131039149460191414620000297009107
:10311000FFF7B6FEBCE700F0AFFB2A003300121841
:103120004B41802109068B42E8D30122034B5242D6
:10313000E4E7C046C4270020FFFFFF0FFFFFFF7F2B
:1031400010B5144C6368002B04D00A211248FFF715
:103150001BFE10BD2300114A1021206800F002FD63
:10316000032000F06BFB032000F082FC03200C49DD
:1031700000F0D0FBFFF72AFB0A4B9C460323237584
:10318000D0231B061B6860446375074B800060609A
:10319000DC60DAE72010002090280020012E0010CB
:1031A000812F001040000034C427002000487047E1
:1031B0002010002070B50500182003F0E9FD164925
:1031C00004000200280000F09DFC1021206028006F
:1031D00003F0F0FD0121A060280003F0EBFDE060AA
:1031E000012000F037FB050000F042FC28000B49ED
:1031F00000F090FBFFF7EAFA094B25759C46D023B7
:103200001B061B6860446375064BAD008000606060
:10321000EC50200070BDC046012E0010812F001020
:1032200040000034C4270020F0B557464E464546BE
:10323000DE46E0B585B0019310AB1B780600039322
:1032400000239A46984600927268EFF3108B72B68C
:103250001368002BFCD0BFF35F8F3568AC7B002C6C
:1032600000D16EE067002B683F19033FDB195A78E5
:10327000AA73002A00D1EA73484AA118B26809016A
:10328000521800980199106051600E9991600F9941
:10329000D16042469A705A701A706B7B9946002B27
:1032A00000D16BE022006B684946A86898474B46FE
:1032B0005B004B442A68033B002856D04846D71988
:1032C000B870D118D35C002B00D07B704B460C70CB
:1032D0006B734C4553D0F3681B19013B1878736826
:1032E000BFF35F8F42461A608BF310885346002B62
:1032F00008D10002204305B0F0BCBB46B246A94647
:10330000A046F0BD039B002B46D00E9B00200F99DA
:10331000984703000B433FD004000D1E1ADA009AB1
:10332000019B121BAB410092019380221206934233
:1033300004D301231A4C5B4200930194039B9A46E9
:1033400082E77368BFF35F8F1C608BF310880120E6
:103350004042D0E700F090FA80220019694112063D
:10336000009001919142E9D3E3E7D3189C70D11901
:10337000D25D002A00D05A704B460B706C73307DC2
:10338000009A019B00F00CFB82460028A3D021008C
:10339000306800F04DFD9EE70020ACE7FFFFFF0F17
:1033A000FFFFFF7F407D7047F0B557464E46DE4633
:1033B00045461100E0B585B006009C46109F1943B4
:1033C00000D1E9E06146DB170193009353401C00F4
:1033D000019B4B401D0000980199241A8D416346C2
:1033E0000E997B600F9BBE607B6139613A6000F093
:1033F00043FA8023001969411B060090019199420C
:1034000004D30123694C5B42009301940023984646
:10341000674B1097039300239946109B370046464D
:1034200098467A68EFF3108B72B61368002BFCD0C5
:10343000BFF35F8F3D68AC7B002C00D179E0630067
:103440001B19033B1A00944602932B6863445A7875
:10345000AA73002A00D1EA73564AA118BA68090172
:10346000521800980199106051600399916041468B
:10347000D1604A469A705A701A706B7B9A46002B3C
:1034800000D17BE022006B685146A86898475346FC
:103490005B0053442A68033B002800D164E0D11844
:1034A0008C465146029810188170D35C002B00D0D6
:1034B000437063461C7053466B73350054455ED0B1
:1034C000FB687A681B19013B1B78BFF35F8F494685
:1034D00011608BF31088002D0CD147461B0223434B
:1034E00001352800FB6005B0F0BCBB46B246A946DA
:1034F000A046F0BD434640461B699847061E24D0AF
:1035000043460CCB100018434CD014001D1E1FDA8C
:10351000009A019B121BAB4100920193802212067C
:10352000934200D27DE70123204C5B42009301943B
:1035300077E73E0047467368BFF35F8F1C608BF3ED
:103540001088012300255B42CBE747460023C8E7EC
:1035500000F092F980220019694112060090019151
:10356000914200D25DE7DEE70298D3189C701118F3
:10357000125C002A00D05A7053460B706C73387D71
:10358000009A019B00F00CFA051E00D198E721007B
:10359000386800F04DFC93E7002301240025012248
:1035A0009C461CE74746350000239AE7FFFFFF7F54
:1035B000352E0010FFFFFF0FF0B504000D000626AA
:1035C0007642F717C64636196F4100B584B08F4270
:1035D00014D811D000F050F932003B00121A8B4180
:1035E000002B15DC002B3ED02000290000F082F9D2
:1035F00004B080BCB846F0BD8642EBD90026002757
:1036000000F03AF932003B00121A8B41002BE9DD41
:10361000002302930193154B3200009314483B00A2
:10362000FFF702FE0028DFDB00239846BC46114A64
:10363000114F7B6A9C4504D8B96A8E42D4D99C4507
:10364000D2D11168EFF3108072B60B68002BFCD05A
:10365000BFF35F8F1368BFF35F8F4146196080F33C
:10366000108820BFE5E7002ABED0D1E7512E001018
:1036700020100020902800200040054070B5060072
:1036800000F0FAF8FA2204000D00002330000021B7
:10369000920003F01BFB8023001969411B0699422D
:1036A00002D3012002494042FFF786FF70BDC046A9
:1036B000FFFFFF7FF0B5EFF30583CE46474680B5A9
:1036C00005000C0085B0002B12D02A4A0020536A56
:1036D000A34203D3926A0130AA4204D305B0C0BC0E
:1036E000B946B046F0BD1B1B5A1E9341D8B2F5E750
:1036F000214E02930193214B0200009330000B00F6
:10370000FFF792FD031EE0DD20BF7168EFF3108725
:1037100072B60A68002AFCD0BFF35F8FDAB2944613
:10372000FF2230681A40417B61450FD0016889460D
:10373000510088464946904441440339897800291C
:1037400004D13269934209D1316107E0F1681B0A63
:103750008A18013A1278DBB29A4207D07368BFF335
:103760005F8F00221A6087F31088AEE7614600F091
:103770005FFBF3E70040054020100020512E0010B1
:10378000F0B5EFF30582D6464F4646461000C0B569
:103790001038EFF3108872B6214C2368002BFCD050
:1037A000BFF35F8F0123190081401E4D1F00696325
:1037B000AA461D4D29601D4D2E78AC463500C540EA
:1037C0002F402B4215D053465F6A194B8500EB58AA
:1037D0009F4218D36246174B8E43EB581670BFF3C7
:1037E0005F8F0022226088F31088002B06D0984754
:1037F00004E0BFF35F8F276088F31088E0BCBA460F
:10380000B146A846F0BD0C4B92009C46624413683A
:103810001360BFF35F8F0023236088F31088EDE708
:10382000280100D0004005403C7005400D290020D3
:10383000A02800202C210020D03F054010B5034BCC
:1038400001001800024AFEF743FF10BD00290020C6
:10385000DCD1001010B5064B064C82B0010000937D
:10386000002203232000FEF755FF02B010BDC04622
:1038700000D2001000290020034B596A0A00986A00
:10388000596A8A42FAD170470040054070B5040079
:103890000D00174A536A1900966A536A8B42FAD18F
:1038A0003000190024184D41AB4216D813D0104BEC
:1038B0002A005B6A9D4203D90D494B6A9342FCD3AF
:1038C000934207D10A4A02E0516A994202D1916AB1
:1038D000A142F9D370BDA642E9D9054B5B6A1C0031
:1038E0005A1CEFD0012201246442E5175242E3E75B
:1038F00000400540064A536A9942FCD807D1044B60
:1039000002E05A6A914202D19A6A8242F9D3704720
:103910000040054070B504000D00EFF3108672B64C
:103920001A4A1368002BFCD0BFF35F8F002D1BD009
:103930002000FEF799FF164981420AD02000FEF7C9
:103940009BFF01212000FEF75FFF0123A340114AE6
:103950001360114BA400E550BFF35F8F00220B4BA7
:103960001A6086F3108870BD0121A1400A4BA200A5
:10397000D5500A4B20001A788A4305491A70FFF780
:103980009FF800212000FEF73FFFE5E7280100D067
:1039900081370010386005402C2100200D290020BF
:1039A000F0B54F46D6464646C0B507002B4C616A77
:1039B0000D00A66A616AA942FAD18B4208D805D0E7
:1039C0000120E0BCBA46B146A846F0BDB242F7D9E4
:1039D000EFF3108A72B6224801680029FCD0BFF3C9
:1039E0005F8F0125BD401F491C4C884609788946D8
:1039F0002943C9B28C46414660460870391D89008A
:103A000065630A511849B8004350216A00202942D1
:103A100019D0616A0800A66A616A8142FAD18B42B4
:103A200019D801D1B24216D8CC450BD00B4B1F226E
:103A30001D625D6301233A4093400C4A1360434684
:103A40004A461A700120BFF35F8F0022044B1A60B0
:103A50008AF31088B5E70020F5E7C046004005402E
:103A6000280100D00D290020A028002080E200E0DD
:103A7000EFF3108C72B60A490B68002BFCD0BFF331
:103A80005F8F01238340074A0748136202789A43F5
:103A90000270BFF35F8F00230B608CF310887047B8
:103AA000280100D0004005400D29002070B5060017
:103AB0000D00140000291DD0002A12D07368806800
:103AC000984762006B0012195B193168033A033B97
:103AD000002808D08A189570C818CB5C002B0BD131
:103AE0000470280070BDCB189C7088188A5C002A6E
:103AF00005D105702000F5E753700470F1E75A70A6
:103B00000570F7E7F0B5CE460700894600B51021ED
:103B10000120160003F04EF903210500380003F0E0
:103B200049F94B466B600023FCB26B73013328608C
:103B30002C73AE60AB73EC73012C06D9421C0133BD
:103B4000DBB2137003329C42F9D1FF233B405A0091
:103B5000D318C6180023033E2800737080BCB946F2
:103B6000F0BDC04610B583600023CCB2437301336F
:103B7000426004738373C4730068421C012C05D92E
:103B80000133DBB2137003329C42F9D1FF230B40A7
:103B90005A00D318C01800230338437010BDC04624
:103BA00070B505000C1E07D0630001681B19033BAC
:103BB000CB185A78002A01D1200070BD500080181F
:103BC0000338091800204E784870210058702800EA
:103BD000FFF76CFF310004002800FFF7E1FF06004B
:103BE000002C20D00028E7D0320021006B68A868A4
:103BF00098477200630092191B192968033A033B26
:103C0000002808D08A189470C818CB5C002B00D00C
:103C100053700670D0E7CB189E7088188A5C002A13
:103C200000D05A7004703400C6E7C046F0B557465D
:103C30004546DE464E46E0B50D006F0001687F192F
:103C4000033F0400C85D83B00192CA19002850D018
:103C500043001B18033BCB185E78B446002E1AD1E4
:103C6000019E002E42D0E67B002E04D073009B19EB
:103C7000CB18033B5D70A37B002B00D1A573E573CC
:103C800000282FD10023537003B0F0BCBB46B246CE
:103C9000A946A046F0BD72006244033A8A185178E2
:103CA0008846002151708946597032000100200079
:103CB000FFF7FCFE43468246002B07D05B002168DD
:103CC0004344033BCB185A78002A16D1424651464A
:103CD0002000FFF7EBFE2168019BCA19002BC2D11F
:103CE0000028CFD043001B18033BCB18002199704C
:103CF000C8E7019B002BB6D1C4E7500080180338F9
:103D00000918487883464846487058704146200054
:103D1000FFF7CCFE594680462000FFF741FF4146A1
:103D200002002000FFF7C2FE8046CFE7F0B55746FD
:103D30004546DE464E46E0B583B00191457B040022
:103D40006F0000687F19033FC15DC219002952D07E
:103D50004B005B18033BC3185E78B446002E1CD1A1
:103D6000019E002E44D0E67B002E04D073009B19E8
:103D7000C318033B5D70A37B002B00D1A573E573D3
:103D8000002931D1002328005370617303B0F0BCC7
:103D9000BB46B246A946A046F0BD72006244033A53
:103DA000821850788046002050708146587032004A
:103DB0002000FFF77BFE43468246002B07D05B00C6
:103DC00021684344033BCB185A78002A17D1424656
:103DD00051462000FFF76AFE019B01002068C219CE
:103DE000002BC0D10029CDD04B005B18033BC3187A
:103DF00000209870C6E7019B002BB4D1C2E75000A9
:103E00008018033809184878834648464870587027
:103E100041462000FFF74AFE594680462000FFF742
:103E2000BFFE414602002000FFF740FE8046CEE77D
:103E300070B5050000292CD0437B8B422ED04C005E
:103E400000686418033C0419A278002A21D05300AA
:103E50009B18033BC25CC6188A4202D11BE0002AB1
:103E600008D053009B18033BC3185A788A42F6D1F6
:103E700062785A70002301222800A3706370FFF754
:103E8000D5FE697B02002800FFF710FE6873012051
:103E900000E0002070BD63783370EBE70122190069
:103EA000FFF7C4FEF2E7C046F8B5CE464746040029
:103EB00080B506200D0000F021FA061E53D0534BAA
:103EC0005349E3185A1E93418022120494465B42E0
:103ED0009B0D504A9B05634413604F4A13601800C2
:103EE0008A689043FBD1494B4C4AE31859424B41F5
:103EF00080215B0049000620995200F0FFF929005B
:103F0000C00002F02FF8C30932D1402201219046AF
:103F10006162A362266BF30736D427008025E36A2B
:103F200000232C376D013D432B600620266300F0F3
:103F3000E5F94146800002F015F8236B060098462B
:103F4000DB073BD46023E26A5A400E3313402B60F8
:103F500043462363802310229B013B431A60304B6E
:103F600023630323A3643000C0BCB946B046F8BD48
:103F70002C4A93423FD900232B492C4A6162A36209
:103F8000266B9046F307C8D52200C02330329B0130
:103F90001343234A06201A60656AA36AAD01ED182F
:103FA00000F0ACF9224901F0DDFFAD02010028006C
:103FB00001F0D8FF0021FFF769FCAEE72200C02323
:103FC00030329B011343164A06201A60636AA26AC4
:103FD0009B019946914400F091F94B4614499B028C
:103FE000994601F0BFFF0100484601F0BBFF0021E8
:103FF000FFF74CFCA6E77F22990188460240013278
:10400000520819009044130082E7C0460080FCBFAC
:1040100000C0004000E0004000F00040B028002058
:1040200001030000FEFF0000FFFF0000C0FF3F0093
:104030004E0E000010B50C2082B000F0B7F9FEF76C
:104040003FFB002810D08B4B8B488B498B4A186064
:1040500059609860D960186159619861D961186296
:1040600059625A6202B010BD854CA06700F04AFA4E
:104070000122844B1A60636C012BFCD10322824B1A
:104080001A607F4A936B012BFCD1013301217F4AD7
:104090007F480093043300F037F905237D4A0093ED
:1040A00001217D4800F030F97C4B5A68FF2A02D884
:1040B000802252005A608022734B6E4C12011A60AB
:1040C0002169002907D0606901F04CFF01304300ED
:1040D0001B18033BFDD2E022704B714819680A405F
:1040E000026002221968514001320A400421026034
:1040F0009A681142FCD080216A4A0901116080222D
:1041000052005A60684B2361684B5968FF2900D8F8
:104110005A60032201215B4B1A60644A936819427A
:10412000FCD0E02310680340614803601268032359
:104130004A40022113405D4A036093681942FCD053
:1041400080215C4B0901196080215B4B4900516063
:1041500063615A4B5A68FF2A00D859608022584B35
:1041600012011A60E169002907D0606901F0FAFEC6
:10417000013043001B18033BFDD2E0234F4A116876
:104180000B4050490B6080214F4B09011960802181
:10419000394B49005160E3614C4B5A68FF2A00D803
:1041A000596080224A4B12011A60216A002907D007
:1041B000606901F0D7FE013043001B18033BFDD2BC
:1041C000E023424A11680B4042490B608021424B78
:1041D0000901196080235B0053608022264BD202C4
:1041E00023623E4B5968914200D25A6080223C4B78
:1041F00012011A60616A002907D0606901F0B2FEFD
:10420000013043001B18033BFDD2E023334A116801
:104210000B4034490B608021334B09011960802326
:10422000DB025360154B6362304B5A68FF2A02D899
:10423000802252005A6080222D4B12011A60A1691F
:10424000002907D0606901F08DFE013043001B1882
:10425000033BFDD2E023254A11680B4025490B6042
:104260008021254B0901196080235B005360124BAC
:10427000A361F7E698170020006CDC021BB7000072
:10428000008000403CB0004030B00040002F685932
:1042900000800240008C864700C002403080004011
:1042A0003090004030A00040001BB7003C80004030
:1042B0003C9000403CA000404059730754800040AF
:1042C00054B000405490004054A000406080004032
:1042D00060B000406090004060A000406C800040F2
:1042E0006CB000406C9000406CA0004048800040E2
:1042F00048B000404890004048A00040014B80007A
:10430000C058704798170020F8B5040022481E00D6
:1043100017000D0001F026FE0100380001F022FE1A
:10432000069B36041B031E432368002B22DB1B4B1A
:104330001B49E3185A1E93418022920194465B4226
:104340001B0B184A1B0363441360174A13601F00BA
:104350008A689743FBD1C022231D92011A4321236F
:104360002560A06013602368002BFCDA0823E66058
:104370001360F8BD3F2322681340AB42D7D1A36836
:104380001B051B0D8342D2D1EE22E368D2021340FB
:10439000B342CCD1EDE7C046001BB7000040FDBFE3
:1043A00000C0004000E0004000F000408023024ACE
:1043B0009B000343D362704700800540024B1A689C
:1043C000024B5A607047C0467827002000800540A5
:1043D000194B1A4A10B5DA618022194BD2051A60BE
:1043E000184C194A146000290AD0E022174BD20455
:1043F0001A60002809D18022144B12061A6010BDE1
:10440000E022D2041A600028F5D043011B1A9B0059
:104410001818802300015B04984209D203000C4A5B
:1044200013608022044BD2055860084B1A60E6E7FF
:10443000084B1800F3E7C046008005402131B76AF9
:1044400000B00540FCFF01000820014000A005402D
:1044500078270020FFFFFF0010B580241C4BE405E7
:104460001C6000281AD001231A4C18431A4BDC6137
:104470001A4C44401C62596298628021144BC90551
:104480001960174817490860E021C9041960002A1B
:1044900007D18022144B12061A6010BD0E4BD86152
:1044A000EBE753019B1A9B009A18802312015B04CF
:1044B0009A4209D213000D490B60074B5A608022C3
:1044C000094BD2051A60E8E7094B1A00F3E7C0462A
:1044D00000B00540D3C007B0008005402D3FF84F25
:1044E000FCFF01000820014000A0054078270020C3
:1044F000FFFFFF00024B9868431E9841C0B270470F
:1045000000800540AA23064A1B0113602F2305499A
:10451000D360054B19605368002BFCDA7047C04626
:104520000040024000B0FA00006002402C4B2D4ACF
:1045300070B51A602C4A2D4B2D491A6014008B68F7
:104540009C43FBD12B4D2C4EB54208D2013E761B2D
:10455000B60808CD984723000134B342F9D1FFF7DC
:1045600069FD264A214B1A60214A9368DB43DB012F
:10457000DD09002BF9D14022214B224C224E9A67B3
:104580005A671A67DA66B44208D223682000002B03
:1045900020D00834FEF70EFCB442F6D31B4C1C4E60
:1045A000C022B168200002F025FCB460FEF700F9DB
:1045B000FEF7C2FBFEF7C4FD164C174EB44208D2FC
:1045C000013E361BB60808CC98472B0001359E42A9
:1045D000F9D170BD0834FEF7DFFBB442D5D3DDE777
:1045E00000E00040BFCDFBFEFE7F3C0000F000403D
:1045F00000C000407817002088170020FFFFFF014F
:1046000000F0014070170020781700200000002003
:1046100000ED00E0881700209417002000BEFDE7A1
:10462000094A03001068002805D00849C3188B42C6
:1046300007D81360704706480449C31810608B42BE
:10464000F7D901204042F5E7702300200000042044
:104650001029002010B5FFF7E1FFC04630B50D006E
:1046600083B01900002A0BD0074B084C019200932D
:1046700002002B00200001F0DBFB0120FFF7CEFF42
:10468000034B1A00F1E7C04614D2001024D20010E8
:1046900070CD00100FB400B5084883B002F078FC6C
:1046A000049B002B07D005A91800019101F0E0FB45
:1046B000034802F06DFC0120FFF7B0FF54D2001058
:1046C000A8CC001010B50148FFF7E4FF64D2001039
:1046D0009A4200D2885470477047C046F8B5574692
:1046E000DE464E464546E0B599460A9B07009A4687
:1046F0000D9B884693460B9C9B073BD10C9B9C4291
:104700003DD21E1B0B9415000C005E442A004B4644
:10471000013521002020B847B542F7D1A0460B9CB7
:10472000002C20D0454636195346321B013C185DFB
:1047300029004B46B847002CF6D12B00350098468F
:104740000D9B9B070FD55B46EC1A0C9BA3420AD925
:10475000464698462A004B46310020200134B8478F
:1047600001354445F6D32800F0BCBB46B246A94605
:10477000A046F8BD16001500002CD3D1E0E71600C6
:10478000002CCFD11500EEE7F0B54F464646D64691
:10479000C0B584B098460EAB1B7894469946129BE0
:1047A0000D9C109F119E9A0725D4002E65D1BC4206
:1047B00021D201221A409246202C00D1E9E00C9A25
:1047C000551E302202E0202C00D17BE001342A5516
:1047D000A742F8D85246002A0DD0B4420BD20C9A08
:1047E000551E3022202C02D171E0202C2DD0013416
:1047F0002A55B442F9D1DA063CD55A052ED4002CFC
:1048000028D10F9A102A00D1B6E0022A00D1BCE0CC
:1048100030220C9C227001244A46002A65D15A0796
:1048200000D499E02B220C9D2A55013403930C9B54
:1048300062460093029643460194FFF74FFF04B08F
:10484000E0BCBA46B146A846F0BD2024DA06EDD554
:104850005A0503D4A74266D0B44264D00F9A102AF6
:1048600071D0022A57D0202CE0D02200013430250C
:104870000C9FBD54202CD9D0CEE7012215001D403D
:10488000AA461A4236D04A46002A4AD10C321A4267
:1048900047D1BC42A1D2202C91D1202E17D8202460
:1048A000DA06C3D55A051BD4202F01D0202ED5D12E
:1048B0001F220F9D102D6FD0022DD8D162250C9F85
:1048C000BD54D0E75246002A79D0202EBDD92024ED
:1048D000DA06ABD55A0503D4202FE9D0202EE7D035
:1048E0000F9A102AA2D12024A0E72D220C9D2A5530
:1048F00001349BE7BC4200D37DE7202C00D05EE76B
:10490000DA06F0D55A05EED4202F62D0202EEAD157
:1049100034001F22CDE7202C00D187E7220001348C
:10492000CCE7013EB5E7621E012CC2D10F9A102AD6
:1049300000D06AE79A063BD558220C9C2270283A90
:104940006270022468E79A060ED4202CCBD078221D
:104950000C9D2A55013486E71A0700D466E7202209
:104960000C9D2A55013461E7202CBCD058250C9AA7
:1049700012191570013476E79A0608D558220C9C56
:10498000227030226270022446E76032F7E7782214
:10499000F5E7002A83D1B3E7A21E013C9D0603D4AC
:1049A00078250C9FBD5460E758250C9FBD545CE7EB
:1049B00078220C9C2270483A627002242CE7DA06B6
:1049C00000D433E75A058BD4202F00D044E71F22B0
:1049D0006FE73C001F226CE710B5002800D110BD26
:1049E00002F08AFAFBE7C0460B0010B5002802D09F
:1049F00049681B68984710BDF0B557464E46454676
:104A0000DE46E0B599B08246894690460893229AE0
:104A1000239B1000190001F076FD002800D0CDE0A6
:104A2000229823990122D94B524201F067FD0028B8
:104A300000D0C3E0229823990122D54B524201F0C5
:104A400047FD002800D0B9E02298239900220023D6
:104A500001F03EFD002800D0F1E1229E239F80233B
:104A6000269ADB001A400D92269A1A4201D106239B
:104A700024938023269A1B011A403B0093460996F3
:104A8000334300D0B3E0002A00D0C2E10023002469
:104A90000A930B94002304250993259B0024AB4221
:104AA00000D95C1B0223269A1A400C92269A1342C4
:104AB00003D06B426B415B421C40099B002B07D02B
:104AC0000A9A0B9B3000390001F099FC06000F0098
:104AD000229823990022002301F0FAFC002803D039
:104AE000802109067B181F00269AAA4B0096019781
:104AF0001340089E0493249B039402934246330080
:104B00004946504600F0AAF90400002D67D0202045
:104B1000269A4946024013005A4253415B42621CA6
:104B200018400A92330022004530D047099A6F1E80
:104B3000D317D4185C40D30F9B46002501E0202DED
:104B400013D008AA94461F23200063440A2101358C
:104B50005E1901F007FA3031317020000A2101F0AE
:104B600001FA26000400092EE9D805230693002344
:104B700004930A3303935B46089E029310AB0A9A90
:104B8000009349463300504605970195FFF7FCFD19
:104B90000C9A0400002A22D04246851A259AAA427D
:104BA0001DD9B046574616002200434649462020EC
:104BB0000135B8470134AE42F6D810E0269B424694
:104BC0000493259B49460393249B50460293229BC2
:104BD000239C00930194089B00F040F904002000FE
:104BE00019B0F0BCBB46B246A946A046F0BD6A4B20
:104BF00078009C46400D604401F098FC674A684B81
:104C000001F01BFC674A684B01F0F0FB674A3B036D
:104C10001B0B1A4304000D0009981100644B00227D
:104C200001F0DBFB634A644B01F007FC02000B0060
:104C30002000290001F0DAFB01F090FC099001F05E
:104C400075FC5E4A5E4B04000D0001F0F6FB00228D
:104C50005C4B01F0CBFB01F081FC5B4A5B4B290014
:104C60000C90200001F0E9FB04000C980D0001F00D
:104C70005DFC574A574B01F0E0FB02000B0020009F
:104C8000290001F0AAFB04000D0002000B000A94A9
:104C90000B9501F0D2FB04000D000A980B9902005D
:104CA0000B0001F0A3FB00220E900F914A4B200055
:104CB000290001F0A4FB0022484B01F097FB020001
:104CC0000B002000290001F09AFB0022444B01F068
:104CD0008DFB02000B002000290001F090FB0A9AD6
:104CE0000B9B0D0080210400C905002001F075FB1D
:104CF00002000B002000290001F078FB02000B00ED
:104D00000E980F9901F07BFB0022284B01F06EFBFF
:104D1000344B0C9C9C4664442305002201F08DFB1F
:104D200004000D0002000B00300039000A940B95BE
:104D300001F0CEFB00285DD123002A00C625099989
:104D400063318D42AD4159466D420435002900D191
:104D5000A3E6134363D030003900234A234B01F00C
:104D6000C5FB002807D0002230003900204B01F09D
:104D7000AFFB002853D1249B002B00D18DE60D9B67
:104D80005A1E9341249AD31A249386E6FFFFEF7F9D
:104D9000FFFFEFFFFFF7FFFF01FCFFFFFB799F50D5
:104DA0001344D33FB3C8608B288AC63F0000F03F4E
:104DB0000000F83F61436F63A787D23F71A3790971
:104DC0004F930A400000E03F1655B5BBB16B02405F
:104DD000EF39FAFE422EE63F00002C40000024404E
:104DE00000001840FF0300002D431CEBE2361A3F81
:104DF00080842E41099B0022013B09932000164B21
:104E0000290001F0FCFA0A00010003000A910B924C
:104E100094E7002300240A930B9400230993249A17
:104E2000099B9A4214DDD31A013B24938023269ACE
:104E3000DB001A4300230025269209932DE68022E9
:104E400012069446229B1E00239B63441F0006E625
:104E500000232493EAE7C04600002440F0B545460D
:104E6000DE464E465746E0B595B08B46904699468D
:104E70001E9A1F9B0A9019001000209D01F043FB11
:104E8000002800D0B0E11E981F990122C74B524262
:104E900001F01EFB002800D037E11E981F99012267
:104EA000C34B524201F02AFB002800D0A7E01E9815
:104EB0001F990022BF4B01F021FB002800D088E0A1
:104EC0001E981F990022BC4B01F002FB002800D065
:104ED0007FE01E981F990022002301F0F9FA0028B4
:104EE00000D0FAE000230B938023229C229ADB005F
:104EF0001C401A4200D102E1092D00D87CE106A92C
:104F00008C462C00172200233021093C62440133D7
:104F1000D154EF1A202B00D132E1A342F7D1002265
:104F2000A44B069207931E981F9901F017FB0500EA
:104F300001F0FCFA02000B001E981F9901F04DFAD7
:104F4000069A079B01F079FA0890099101F02AFB73
:104F5000060001F0E7FA02000B000898099901F039
:104F60003CFA0022954B0890099101F0C7FA0028FD
:104F700000D1D2E00136300001F0D4FA069A079B46
:104F800001F0B4FA002801D000260135AA46002F0E
:104F900000D098E0280001F0C9FA02000B001E982A
:104FA0001F9901F01AFA854B002206000F0001F04C
:104FB0008FFA0CAB9A46002845D100223000390008
:104FC0007E4B01F09BFA00283DD1EB073BD5013524
:104FD00039E0229B42460493219B594603930A9849
:104FE0001E9B1F9C0295009301944B46FFF704FD06
:104FF00015B0F0BCBB46B246A946A046F0BD229B08
:105000005B0767D403226E4B229901920391219989
:105010000291009342464B4659460A98FFF75EFBC1
:10502000E6E706AA94461723280063440A210134C0
:105030001E1900F06FFF3031280031700A2100F096
:1050400069FF051E76D0202CEBD10323229A134052
:10505000012B1DD1219B002B1AD00B9B002B00D0C4
:10506000BBE0229A0C33134200D0B6E0219BA3424E
:1050700000D887E006AB9C4617223023624404E048
:105080002199013413558C4259D0202CF8D1202479
:10509000229B01940393219B02935346B9E706AAEE
:1050A000944617230A216344300001341D1900F08F
:1050B00059FF3031297030000A21013F00F052FFC2
:1050C000092E46D90600202CE9D155460CAB2024E8
:1050D0009A46B8E704223B4B96E71E9A1F9B002096
:1050E000002101F07AF901230B938023229C229A5C
:1050F000DB001E901F911C401A4200D0FCE60022EB
:10510000314B0627069207930DE7229B0393219BC1
:105110000293042301932D4B7BE700220898099901
:10512000264B01F0D5F9002800D02FE7002E4FD1F3
:1051300001362BE70323229A1340012B66D0202C43
:10514000A6D00B9B002B1FD02D23524613550134A4
:105150009EE75546202CB9D030233A19002F08D0AD
:10516000172006A9013409180B55202CAED0944203
:10517000F6D10CAB9A462E2352461355013462E702
:105180002024CCE6202C83D0229B5B0708D4229BD2
:105190001B0700D47CE7202352461355013477E7E0
:1051A0002B2352461355013472E7C046FFFFEFFF31
:1051B000FFFFEF7F65CDCD4165CDCDC10000E03F64
:1051C00078D2001070D2001080842E4180D200105E
:1051D000F30700D4DAE60136D8E6219B013B2193A0
:1051E000A34200D946E7AAE7229B0393219B02939F
:1051F00003230193074B0CE7074BEA009B185C68FD
:105200001B682F000693079400248CE6219B002B3B
:1052100095D022E77CD20010A0D60010F0B55746FA
:10522000DE464E464546E0B5A5B01F002E9B914692
:105230000D93CA4ACA4B82468B461A60002900D198
:1052400029E2002338789846002800D12BE2C54B8C
:1052500044460C93C44B55464E460E930AE0631CDD
:105260009846220033005946A8474446387800281B
:1052700000D187E001372528F1D108239A46043B65
:105280009946023B9846013B00229C460B94387895
:10529000791C0300203BDBB2102B03D80C9C9B0035
:1052A000E3589F460300303B0B9C0B92092B3AD9E5
:1052B000002398462A2800D1DDE000239A462E28B4
:1052C0004BD00300683BDBB2122B1ED80E9A9B001A
:1052D000D3589F4663460F001A43D8E743460F0052
:1052E0001A43D4E74B460F001A43D0E710230F00B0
:1052F0001A43CCE753460F001A43C8E780235B00EC
:105300000B9A78781A430B9201310F0067284FD817
:105310002428A4D90300253BDBB2422B9FD8934914
:105320009B00CB589F46002398460B9B47469C46C4
:1053300000E00131BB00DB195B001F180878303F2B
:105340000300303B092BF4D963460B930023B84686
:105350009A460F0001312E28B3D180200B9AC0004D
:1053600002430B9230225242944678780B008444D8
:105370006246092A00D8AAE12A2800D1B9E10F0023
:1053800001319EE7A046AA46B146C84503D3012392
:105390005B424B4498464B46424659460020D04714
:1053A000200025B0F0BCBB46B246A946A046F0BDE1
:1053B00001006939C9B20F2900D950E701238B4098
:1053C0009C466B4B994663464A4613400F93624690
:1053D0004B461A4200D068E10A2956D0072900D06E
:1053E0003DE70D9B02CB9846002900D092E10B9B34
:1053F00010211A008A431000113108438146802091
:105400001A00C0000240110003421CD114AB9C469C
:105410001F220F2362440D959C4615000F9B0B9491
:1054200002E0202B0CD0110064460C4020003730E5
:10543000092C00D807380133E8540A090F29F0D89D
:105440000B9C0D9D0F934B460822069353460592E5
:1054500008320392002204930F9B029201931CAB2B
:1054600022000093594633002800FFF78DF9434688
:1054700004000D93FAE60D9B04CB9046002A79DBDD
:1054800078780D930F00013117E70D9B02CB149331
:105490000B789C4618005346002B00D134E10028BD
:1054A00015D05346013B013399460D940B9C89441A
:1054B0004A460B00A14601E0934203D05C780133D9
:1054C000002CF9D14A465B1A0D9C0B920F93802356
:1054D000DB0099460B9A13400D934B461A4204D0B9
:1054E0000F9B534501D953460F93022399460B9ABC
:1054F00013400B934B46134200D1F5E16346002B5A
:1055000000D1D6E10D9B002B00D182E10B1BD146CF
:1055100031009A463B00A1442E005F464D462200D2
:105520009B46894609E04B463900541CB047534618
:10553000185D002800D192E122009542F3D14B463C
:105540005A46A946BB46350017001E004C460B9B29
:10555000002B00D0ADE1149B0D9387E61D52001087
:105560007427002000D5001044D5001090D50010FD
:10557000419000000B9A283802430B924246524257
:10558000787890460F000D93013196E678786C2874
:1055900000D15DE180230B9A5B001A430B9201312D
:1055A000B3E680239B00ABE67878682800D148E119
:1055B00080230B9A01311A430B92A6E6672800D18B
:1055C000B2E0472800D11AE1452800D11CE10B9A2E
:1055D0000721049242460D9B0392073352468B43A8
:1055E000190002920CC92800009201930D9122002B
:1055F00033005946FFF700FA040037E6462800D189
:105600008DE00B9A0721049242460D9B03920733CB
:1056100052468B43190002920CC928000092019354
:105620000D91220033005946FFF718FC04001DE6D7
:10563000631C98462200330059462520A84744465B
:1056400014E60D9B04330F93631C99460B9B9A073A
:1056500000D40AE10D9B2200187859463300A84770
:1056600043464444012B00D86FE1B0462E0025008C
:105670004C46B9465F46220043460134390020209B
:10568000B047AC42F7D12C00BB4635004F464646EA
:105690000F9B0D93EAE5D64B38789A46002398463F
:1056A000002800D0D3E500246FE66F2842D000D850
:1056B000FDE11023782800D19BE00B9A9A430B92CE
:1056C0000A239C46002314930A330F9338E057466D
:1056D0000B9AB900C919490001330F181878303FE7
:1056E000010030390929F4D9BA460B921F00591C20
:1056F000E7E50D9BB87804CB0237D143C9170A40C0
:1057000092460D93791CDCE5002800D1DFE60223E8
:105710005B42C8E621200B9A0243914676E620239D
:105720000B9A1A430B926CE780230B9A1B011A43C6
:105730000B924CE708239C460023149308330F93E5
:105740000B9880230200DB001A401100020018426F
:1057500000D080E00C239A431000802302009B00BD
:105760001A400B92184200D0F1E0802302005B0047
:105770001A4091460D9A04321492184200D0C3E2A6
:10578000430600D5D7E0030600D421E30D9B1B8818
:105790000993002B00D02DE110339843002900D14C
:1057A00028E10023994643460593534604930F9BF3
:1057B00006900393002302934B4601931CAB2200F7
:1057C0000093594633002800FEF7DEFF0400C2E6CE
:1057D000582809D0622800D0E3E202239C46002327
:1057E000149302330F93ABE720230B9A1A430B92C7
:1057F000103B9C460023149310330F93A0E78023A3
:105800000B9A1B011A430B9220230B9A1A430B92FB
:10581000DDE60B1B9A460F9B99463B0037005E4620
:105820009B4622003B003100A84753460134185DD7
:105830000028F6D14B460F935B46B3463E001F004F
:1058400085E6C0230B9AB8781A430B92F91C5CE5E5
:10585000C0239B00F6E70D239A4310007DE75B46CB
:105860003500BB464E461F0071E64346012B66D904
:10587000631E434432002E001D003B00A2465F46DB
:1058800091469B4622004B46013439002020B04708
:10589000AC42F7D15B463500BB464E46A146544666
:1058A0001F000D9B4A461878594633004444A847C8
:1058B000EEE60F9BA146984500D84CE64444E41A16
:1058C000B0462E0025004C46B9465F4622004346AE
:1058D000013439002020B047AC42F7D12C00BB4640
:1058E00035004F46464636E60F98804500D873E2AD
:1058F0004346E218131A32002E001D003B00914669
:105900005F469B460F9122004B4601343900202010
:10591000B047AC42F7D15B46BB461F0043460F99E8
:1059200001330F930B7835009C464E4660460028A5
:1059300000D0E7E50FE60D9B1B78099329E70D9B47
:105940002200187859463300A8474C46A0E60D9A25
:10595000FA3BFF3B07329A430133994691444B4649
:105960000D931368526815921A4306D11032904372
:1059700000220992002900D083E06122810600D52F
:105980004122D2B20A9214AA91460A9A00210A3AF6
:105990000B9242461792524618925A46B2460991C5
:1059A0001E001F31149B4944BB4616941A950024CF
:1059B000674698468946159D19901B920AE0303239
:1059C000D2B24B4601341A55A8454CD0202C4CD0AD
:1059D00006000D003A0000233000290000F000FB13
:1059E000D2B2092AEBD90B9B9C466244D2B2E8E7BB
:1059F000D94600106123820600D54123DBB20A3B61
:105A00000B93434614A91F228C46159353466244B8
:105A1000B2460D9417974C468046A9461700099D3B
:105A20000F9E169308E03033DBB201343B55B5428C
:105A30000ED3202C0CD005003100280000F092FA83
:105A4000CBB20929EFD90B9A94466344DBB2ECE759
:105A5000159B40469846169B4D465646A1469A468B
:105A60000D9C179F9FE6B742B0D9179B56469846A4
:105A7000189B5F469A461B9B09949B46169C199857
:105A80001A9D43460593534604930F9B0690039338
:105A900000230293099B01931CAB220000935946FB
:105AA00033002800FEF770FE0400FFF7DFFB102331
:105AB0000B9A9A430F92692800D091E10B998023A9
:105AC0000A00DB001A4010000A00194203D011211D
:105AD00018008A430F920F9A802311009B001940EF
