:020000041000EA
:1000000000B5324B212058609868022188439860DF
:10001000D860186158612E4B002199600221596106
:100020000121F02299502B49196001219960352056
:1000300000F044F80222904214D00621196600F024
:1000400034F8196E01211966002018661A6600F04E
:100050002CF8196E196E196E052000F02FF8012189
:100060000842F9D1002199601B49196000215960AB
:100070001A491B48016001219960EB211966A021F2
:10008000196600F012F800219960164914480160C1
:100090000121996001BC002800D000471248134993
:1000A000086003C880F30888084703B5996A0420EC
:1000B0000142FBD001200142F8D103BD02B5186610
:1000C0001866FFF7F2FF186E186E02BD00000240BE
:1000D000000000180000070000035F00212200005C
:1000E000F4000018222000A00001001008ED00E03C
:1000F00000000000000000000000000074B24E7A12
:1001000000200420F7010010C3010010C5010010F9
:10011000C1010010C1010010C1010010C101001097
:10012000C1010010C1010010C1010010C701001081
:10013000C1010010C1010010C9010010CB01001065
:10014000CD010010CD010010CD010010CD01001037
:10015000CD010010CD010010CD010010CD01001027
:10016000CD010010CD010010CD010010CD01001017
:10017000CD010010CD010010CD010010CD01001007
:10018000CD010010CD010010CD010010CD010010F7
:10019000CD010010CD010010CD010010CD010010E7
:1001A000CD010010CD010010CD010010CD010010D7
:1001B000CD010010CD010010CD010010CD010010C7
:1001C00000BE00BE00BE00BE00BE00BEEFF3058054
:1001D000103800BEF2EB8871ECA7001014A80010D4
:1001E0003402001090A31AE700201F49086006C8D7
:1001F00081F3088810471D48006800282FD10DA4FE
:100200000ECC002902D000F012F8F9E71849194A7B
:10021000002000E001C19142FCD1174988471749ED
:1002200088471749884700BEFDE701C901C29A42C5
:10023000FBD3704714A80010C00000201416002043
:1002400068BD0010000004200000042068BD0010FC
:10025000001004200010042000000000704709482E
:1002600005F09EFB0047000008ED00E0000000D014
:100270001816002054260020C94000104D0500101B
:10028000F14100105756000006005250ABB36053C6
:1002900060A3001006005250861C030270A30010D9
:1002A000060052505422A29D78A30010050052501F
:1002B000DE65F46868BD0010F8B5C0460648074919
:1002C000091A8B10C90FC91810B5491003D0044B77
:1002D000002B00D0984710BD1416002014160020E3
:1002E00000000000054B10B5002B03D00449054861
:1002F00000E000BFFFF7E2FF10BDC04600000000B5
:1003000010250020989D00100122024B01201A7038
:100310007047C04647260020012070470122024B4B
:10032000002000211A7070474F2600200122024B46
:10033000002000211A7070474626002070B50A2858
:1003400000D070BD2D25114C200001F0EDFA635D49
:10035000002B0CD12C23E25C002A04D00022E254B2
:100360000B4B01321A70200001F0A6FAE9E72000D9
:1003700001F09AF8200001F09FF8D0220123120624
:100380009361044A137000236355E3E7442500207A
:100390004E260020C00F0020F0B55B488BB006F061
:1003A000C5FB5A4E0020310009F060FA584D040098
:1003B000290009F0BDFA002800D178E0554D200051
:1003C000290009F0B5FA002857D02000524909F059
:1003D000AFFA002800D081E0310009F047FA642428
:1003E00003784278303B5C438378303A303BE41802
:1003F00093009B185B00E4182100484806F096FB28
:1004000004AA1100464B61CB61C121CB21C11B78ED
:10041000444D0B7029681523434801F009FC2B68F3
:10042000012015332B6000F08FFB404B1D6802F05C
:10043000F1FFFA2206006001001B800000190F0086
:10044000002392000021C00006F01CF90B000200FE
:10045000802192197B4109068B4202D30122344B41
:10046000524201210291002101913249280000915C
:1004700002F0A8FC304B186017E0280006F064FA80
:1004800004AA11002D4B31CB31C111CB11C11B7806
:10049000244C0B7021681523234801F0C9FB236805
:1004A00001201533236000F0F9FB0BB0F0BD2800EC
:1004B00006F04AFA04AA1100214B31CB31C111CB0D
:1004C00011C1184C14232168174801F0B1FB2368AF
:1004D00001201433236000F037FBE6E7194806F0EB
:1004E00033FA04AA1100184B31CB31C111CB11C121
:1004F0001B780C4C0B70216815230B4801F098FBFE
:10050000236815332360D0E7989D0010180F002052
:10051000A89D0010B09D0010B89D0010C09D001057
:10052000D89D0010200F0020E82400203C26002049
:10053000FFFFFF7F2D03001038260020F09D0010E4
:10054000089E0010D09D00101C9E0010F0B5DE46E5
:100550004E4657464546E0B5AFB006F0F3FA0821DF
:100560000122E04B0A2001F0F9FD0D2001F058FEB8
:10057000D02380221B0692015A6204205A6102F0A5
:10058000E7FBD94B002418600420229302F0E0FB23
:10059000D64B1860D64802F03FFED64B180099465D
:1005A00001F03EF8D44E300001F0E4FB052000F0ED
:1005B00087FA02F0C9FBD14BD14A0293D14B019487
:1005C000009301235B4202F0BDFC002800D192E0C1
:1005D00002F0BAFBCC4BCA4A0293CC4B0194009375
:1005E00001235B4202F0AEFCA04200D183E0012176
:1005F000C74803F0BBFC03F04BFDA04200D1D7E19C
:10060000C44806F0A1F9484600F056FFC24BC34A61
:100610000F93C34B13921893C24BC34A1793C34B08
:1006200014921993C24BC34A1A93C34B12929A461F
:10063000C24BC34A1C93C34B1E921B93C24AC34B6B
:1006400023921D93C24AC34BC34C0A93C34B2892B7
:10065000C34A98462992C34AC34F2792C34AC44DFE
:100660002492C44A16972592C34A2692C34A0D92F1
:10067000C34A0C92C34A2092C34A1592C34A1F929E
:10068000C34A0E92C34A2192C34A1092C34A0B92A4
:100690004A46119203F060FC002006F05BFA0F9BC3
:1006A000C0B21870642800D183E00A9B1B78002B2D
:1006B0002DD10D9B1B78002B04D00C9B1B78002B9D
:1006C00000D0D6E00E9B1B78002B04D00C9B1B782F
:1006D000002B00D0B4E0109B1B780B9B1B78002BE9
:1006E000D8D0169806F030F9012000F0D7FA002390
:1006F0000B9A1370CEE7AA4806F026F90120404273
:100700002FB0F0BCBB46B246A946A046F0BD119F33
:1007100064224146380001F093F9404606F014F98E
:10072000380001F0F5F97B6BBA6B396B139806F062
:10073000FDF91499404609F099F81299814609F09B
:10074000F7F8002800D1B6E048461E9909F0F0F805
:10075000002806D04846239909F0EAF8002800D17D
:10076000ACE043468F4A1B88934200D19DE0249819
:1007700006F0EAF8229B1B68994602F04BFE002324
:10078000894A12184B41802109068B4202D301226B
:10079000864B524201210291002101912599484640
:1007A000009102F00FFB269B186000230A9A137039
:1007B0007FE79130FF3002F02FFD189A17991998B2
:1007C00006F0B4F95746316A1A9806F0AFF91423C7
:1007D0000C3707933A006B4606970896B94683CACA
:1007E00083C383CA83C3534600200ECB01F01CFB96
:1007F00049461C9806F09AF91B9806F0A5F80023C4
:1008000080279B46BF0103F0A7FB0123220039008C
:10081000300001F0D9F92078002806D10137AF4225
:10082000F1D11D9806F090F83FE706F041F85B46DD
:1008300001372370AF42E6D11D9806F085F834E702
:10084000159806F081F8D02301221B065A61002377
:1008500099464A460C9B219F1A70390064321198C0
:1008600000F0BCFD380006F06FF84A460E9B1A7087
:1008700031E7209806F068F8159806F065F8D0235F
:1008800001221B065A61002399464A460C9B1F9F72
:100890001A7039001232119800F0A0FD380006F0ED
:1008A00053F84A460D9B1A700CE743469B786B2B16
:1008B00000D05CE779E7FFF76FFD52E7289A2AAB93
:1008C00083CA83C312881A80299806F03DF8279FAF
:1008D0000E23300039682AAA01F0AAF93B680E33CA
:1008E0003B603EE73D030010301F00203C26002007
:1008F0008813000044250020E8240020601900200F
:1009000000796CFC0903001048170020190300103F
:1009100060EA0000489E001043260020049F00105B
:100920006C9E0010789E0010180F0020849E00100E
:10093000A49E0010849F0010240F0020B49E00107D
:10094000309F0010C89E0010349F0010D89E0010E9
:100950008C9F00104E2600204A260020842500206F
:10096000389F0010200F00207C9F0010489F00102F
:10097000010002001D0300102C1F00204F26002044
:10098000C00F00205C9F00106C9F0010480F0020DB
:10099000472600205C0F0020452600204626002028
:1009A000349E00106163000040420F00FFFFFF7F94
:1009B000014805F0C9FF26E6609E0010FE2270B5D2
:1009C0000826134B1921D2011A241B209A620022F7
:1009D0005E6102369E610136DE610E4D023E596057
:1009E0001E62013904361D6019619C60D8605E6228
:1009F0009A879A85084B1D601D251961E7315D6056
:100A0000DA619C60D860596199611A6270BDC04614
:100A10004425002000000440E824002070B51E4D4D
:100A200000210400286801F05DFB01211B4B080038
:100A30001A6893009B181A4A9B00944663441A68EC
:100A400090438022520113431860164B1B68A34247
:100A50001ED3154B1B689C421AD328680207520FFD
:100A600093009B18114A9B00944622046344120C85
:100A700001420AD10E4918684240114080225201B9
:100A8000134319600B4B1C6070BD0B491204F2E755
:100A90000A4805F059FFF7E740250020002600200E
:100AA00000000540C80F0020C40F00200C000540C6
:100AB000FFFF0000602000200000FFFF9C9F00104F
:100AC00070B507251A4E1B4C43082B40042130609B
:100AD000236001F0EFFA8020236840019A00D218C9
:100AE000154B04009C460223920062441168144393
:100AF0008B43236080235360104B13613368104E87
:100B000059080D40A90049190E4D8900AC46012530
:100B10006144B4462B40013BDB030E68DB0B6344AE
:100B200033400843036013689D43256070BDC04691
:100B30004025002000260020000005405FEA00005C
:100B40000000FFFF0C000540F0B557464546DE4665
:100B50004E46E0B5474B484D9A462C681B6883B01B
:100B600001909C4264D3454E3068A0424ED9444B1C
:100B70009946444B9B460123984607E002202C608F
:100B800002F04AFB2C68306884423FD24B46002179
:100B9000186801F0A7FA5B461A68414693009B1853
:100BA000394A9B00944663441A6891430A008021A5
:100BB00049010B431A603268A24255D353461B6861
:100BC000A34251D84B4619680723480818408300B0
:100BD0001B182E48474684469B0020046344000CA3
:100BE0000F4223D02A4900041F687840014080202A
:100BF00040010343196001349442BFD302202A60AC
:100C000002F00AFB2C6830688442BFD3FFF706FF6E
:100C1000019B002B13D1FA20800002F0FDFA03B0F3
:100C2000F0BCBB46B246A946A046F0BD1949DBE779
:100C3000FA2080002B6002F0EFFA2C6893E7104B4B
:100C40000221186801F04EFA0E4B01211A68930038
:100C50009B180D4A9B00944663441A6811408022F9
:100C6000520113431960D6E70B4805F06DFE2C685E
:100C70003268C0E7C40F002060200020C80F0020A9
:100C80004025002000260020000005400C00054003
:100C90000000FFFFFFFF00009C9F0010F0B55746CB
:100CA0004546DE464E46E0B5474B484D9A462C68D1
:100CB0001B6883B001909C4264D8454E3068A042C6
:100CC0004ED2444B9946444B9B460123984607E03D
:100CD00002202C6002F0A0FA2C68306884423FD9D0
:100CE0004B460021186801F0FDF95B461A68414641
:100CF00093009B18394A9B00944663441A689143B9
:100D00000A00802149010B431A6053461B68A34225
:100D100054D33268A24251D84B4619680723480879
:100D2000184083001B182E48474684469B00200429
:100D30006344000C0F4223D02A4900041F68784006
:100D400001408020400103431960013C9442BFD818
:100D500002202A6002F060FA2C6830688442BFD812
:100D6000FFF75CFE019B002B13D1FA20800002F0FC
:100D700053FA03B0F0BCBB46B246A946A046F0BD4C
:100D80001949DBE7FA2080002B6002F045FA2C6855
:100D900093E7104B0221186801F0A4F90E4B0121D2
:100DA0001A6893009B180D4A9B00944663441A6886
:100DB00011408022520113431960D6E70B4805F019
:100DC000C3FD2C683268C0E7C80F002060200020F7
:100DD000C40F002040250020002600200000054010
:100DE0000C0005400000FFFFFFFF00009C9F00106B
:100DF000F8B501234746984642464368CE469A4096
:100E00001300D0220500120680B59146936118495F
:100E10000122006808F090FF164C174E22003100A6
:100E20000123286808F090FF2178144805F07EFE21
:100E3000220031000123286808F086FF104F217836
:100E4000380005F073FE310022002868012308F005
:100E50007BFF42466B6838009A4013004A46536154
:100E6000217805F063FEC0BCB946B046F8BDC04667
:100E70006AA400104C2600206FA40010BC9F001034
:100E8000C89F0010F8B5CE46474680B5012705003B
:100E900040220721234805F049FE3A006B68224CA6
:100EA0009A401300D02212069146286893611F4988
:100EB0002200012308F048FF2200286801231C4972
:100EC00008F042FF2200286801231A4908F03CFF7D
:100ED000194E220031000123286808F035FF2178DF
:100EE000164805F023FE220031002868012308F08F
:100EF0002BFF134B21789846180005F017FE3100A0
:100F000001232200286808F01FFF4046217805F0E1
:100F10000DFE6B689F404B465F61C0BCB946B04652
:100F2000F8BDC046D49F00104C26002070A40010CD
:100F30006EA400106DA400106FA40010BC9F0010E0
:100F4000E09F001070B504000126254805F0FCFC68
:100F5000606801F065F932006368D0259A402D067B
:100F60006A62206A6A6101F05BF93200236A606993
:100F70009A406A626A6101F053F932006369E0697C
:100F80009A406A62AA6101F04BF9E36920689E40C9
:100F90001449AE6208F068F8C02102202368890174
:100FA0001D1D29435A6808601968024005304140F8
:100FB000C8300840802149010B43186080239B0101
:100FC0002B431A60A068012101F074F8E068012148
:100FD00001F070F80121206901F06CF870BDC04685
:100FE000EC9F001020A10700F0B54F46D6464646BC
:100FF000C0B582B001AB9A46042352461370013348
:101000006B44994607234A461370013B6B4498464C
:101010000023424613706B46DF1D01233B702933CA
:10102000C35C0400002B28D101252A006368D02668
:101030009A403606B26113490122206808F07CFE0E
:1010400051460122206808F077FE494601222068B7
:1010500008F072FE41460122206808F06DFE012270
:101060003900206808F068FE63689D40756102B031
:10107000E0BCBA46B146A846F0BD034805F064FCA2
:10108000D2E7C04667A4001018A0001070B5012573
:101090000400174B82B017491748019305F046FD2D
:1010A0002A006368D0269A403606B26113490122AD
:1010B000206808F041FE01A90122206808F03CFEEA
:1010C0006B460122591D206808F036FE6B4601224E
:1010D000991D206808F030FE6B460122D91D20685A
:1010E00008F02AFE63689D40756102B070BDC0467D
:1010F00039300000C0CA89362CA0001066A4001048
:10110000F0B5D6464F464646C0B582B001AB9A46CA
:101110000B2352461370063B6B44994603234A4601
:10112000137003336B449846042342460125137021
:101130006B462A00DD71DF1D4368D0269A4004000B
:101140003606B26110490122006808F0F5FD5146EB
:101150000122206808F0F0FD49460122206808F0CD
:10116000EBFD41460122206808F0E6FD012239002E
:10117000206808F0E1FD63689D40756102B0E0BC45
:10118000BA46B146A846F0BD62A40010F0B5DE46EE
:1011900057464E4645460223E0B583B06B449B4616
:1011A00000235A46137003226A4492460F22514686
:1011B0000A7001AA9146137005226A44904664227F
:1011C000414601250A706A4604001D48971D957125
:1011D000D37105F0B9FB2A006368D0269A40360621
:1011E000B26118490122206808F0A6FD5946012283
:1011F000206808F0A1FD51460122206808F09CFDFE
:1012000049460122206808F097FD414601222068E6
:1012100008F092FD39000122206808F08DFD6B4630
:101220000122D91D206808F087FD63689D40756123
:1012300003B0F0BCBB46B246A946A046F0BDC046CE
:1012400048A000105EA40010F0B5DE4657464E469A
:1012500045460223E0B583B06B449B4607235A46BC
:10126000137003226A449246402251460A7001AA32
:10127000137090466A463A3353713B3B6B44994630
:1012800034234A4613706A461033D3711A3BC35C49
:101290000400002B46D101252A006368D0269A401D
:1012A000224F36063900B2612068012208F044FD61
:1012B00059460122206808F03FFD5146012220686E
:1012C00008F03AFD49460122206808F035FD2A0061
:1012D00063680A209A40726101F09EFF2A006368E9
:1012E00039009A402068B261012208F025FD41468C
:1012F0000122206808F020FD6B460122591D20685C
:1013000008F01AFD6B460122D91D206808F014FD73
:1013100063689D40756103B0F0BCBB46B246A94608
:10132000A046F0BD024805F00FFBB4E761A4001031
:1013300084A00010F0B54F46D6464646C0B582B0F0
:1013400001AB9A46072352461370023B6B44994601
:1013500001234A46137005336B44984602234246E4
:1013600013706B46DF1D80233B70563BC35C04004B
:10137000002B2BD101252A006368D0269A4036061F
:10138000B26114490122206808F0D6FC51460122BE
:10139000206808F0D1FC49460122206808F0CCFC06
:1013A00041460122206808F0C7FC0122390020686C
:1013B00008F0C2FC63680A209D40756101F02CFFB3
:1013C00002B0E0BCBA46B146A846F0BD024805F0FE
:1013D000BBFACFE75CA40010ACA00010F0B501256B
:1013E00016002A00C6464369D0279A4000B5282334
:1013F00082B03F06BA616A46C35C04008846D37176
:10140000FF2E16D82A00436824499A400068BA6122
:10141000012208F091FC6B460122D91D206808F0DA
:101420008BFC32004146206808F086FC63689D40D2
:101430007D6105236B4498460023424613706A463B
:10144000D37193712A33E35C971D002B22D10125C0
:101450002A006368D0269A403606B26110490122FC
:10146000206808F069FC41460122206808F064FC0D
:1014700039000122206808F05FFC6B460122D91D6B
:10148000206808F059FC63689D40756102B080BC1B
:10149000B846F0BD034805F057FAD8E763A400103A
:1014A00060A400109CA00010012342699340D02248
:1014B000120653617047C046F0B54746CE46052335
:1014C00080B583B06B449946FF234A4613700622C9
:1014D0006A44137090466A46D371D53BC35CD71DEE
:1014E0000400002B22D101252A006368D0269A40EF
:1014F0003606B2610F490122206808F01DFC4946FA
:101500000122206808F018FC41460122206808F0FA
:1015100013FC01223900206808F00EFC63689D402E
:10152000756103B0C0BCB946B046F0BD024805F0D5
:101530000BFAD8E75AA4001000A10010F0B5DE465F
:1015400057464E464546E0B583B0FF236A461370C2
:1015500001226A441370FD3B6B449A469346002374
:101560005246137003226A449146032249460A7088
:1015700001AA0400137090466A46012680695371DF
:101580009371D371571D00F04BFE01220821A06911
:1015900000F0BAFD204805F0D7F932006368D02585
:1015A0009A402D06AA611D490122206808F0C4FB5B
:1015B00069460122206808F0BFFB594601222068D5
:1015C00008F0BAFB51460122206808F0B5FB4946F5
:1015D0000122206808F0B0FB41460122206808F093
:1015E000ABFB39000122206808F0A6FB6B46012204
:1015F000991D206808F0A0FB6B460122D91D2068C8
:1016000008F09AFB63689E406E6103B0F0BCBB4675
:10161000B246A946A046F0BD2CA1001059A4001066
:10162000F0B5C646040000B5924882B005F08CF9CA
:10163000606A1D2800D900E101272000FFF782FC25
:101640003A006368D0259A402D06AA618A49012292
:10165000206808F071FB01228849206808F06CFBC3
:10166000874E01223100206808F066FB012231001C
:10167000206808F061FB01223100206808F05CFB63
:101680003A00636820009A406A61FFF753FE6B4698
:10169000DD1D2A232F70E35C002B00D0E6E001273C
:1016A0003A00636877499A401300D022120693618A
:1016B00090462068012208F03FFB012229002068A3
:1016C00008F03AFB3A00636820009A401300424653
:1016D0005361FFF733FF2A232F70E35C002B00D008
:1016E000C0E001273A00636867499A401300D0229E
:1016F0001206936190462068012208F01DFB01222A
:101700002900206808F018FB3A0063689A4013002B
:10171000424653612A22A25C002A00D09BE0D022DC
:1017200012069361904659490122206808F004FB93
:10173000574F01233A003100206808F005FB0123D0
:101740003A003100206808F0FFFA012362682000A7
:10175000934042465361FFF74BFB2A23E35C002B87
:1017600000D074E0012632006368D0279A403F061B
:10177000BA6148490122206808F0DEFA4649012290
:10178000206808F0D9FA3200636820009A407A6134
:10179000FFF77CFC2000FFF727FC06236B449846EC
:1017A0001623424613703200123B2B7063683B498C
:1017B0009A402068BA61012208F0BEFA414601222F
:1017C000206808F0B9FA29000122206808F0B4FA6C
:1017D0003200636832499A4020687A61BA61012216
:1017E00008F0AAFA210001222068283108F0A4FAA2
:1017F000210001222931206808F09EFA6368200048
:101800009E407E61FFF77CFC2000FFF7BFFC2000BC
:10181000FFF71AFD0F2301222B702249206808F0E0
:101820008BFA01222900206808F086FA2000FFF7D1
:1018300029FB02B080BCB846F0BD00F0F1FC0123EA
:10184000626A9340D022120653625361F4E616484E
:1018500005F07AF886E7154805F076F863689F404A
:101860003B005CE7124805F06FF83AE7114805F0D5
:101870006BF814E740A100106BA400106CA40010DA
:101880006FA400105FA400105BA400105DA4001002
:101890004C26002069A4001068A4001065A4001064
:1018A00064A4001054A40010FC9F0010E8A00010D5
:1018B000C8A0001068A00010F0B5C646062300B509
:1018C00082B06B449846FF23424613706A46D37138
:1018D000D53BC35CD71D0400002B1CD101252A0079
:1018E0006368D0269A403606B2610D49012220680D
:1018F00008F022FA41460122206808F01DFA012270
:101900003900206808F018FA63689D40756102B0DC
:1019100080BCB846F0BD034805F016F8DEE7C046C7
:1019200058A4001054A10010F0B5C646062300B517
:1019300082B06B44984600234246012613706A46E3
:10194000D37132004368D0279A4004003F061649FD
:10195000BA610068012208F0EFF9144D0122290054
:10196000206808F0E9F9012342462900206808F0C0
:10197000EBF96A46012307322900206808F0E4F9F0
:10198000320063689A406B467A61DB791E4201D06F
:101990002D22A6549B0702D52C230122E25402B02B
:1019A00080BCB846F0BDC04656A400106FA400101D
:1019B000F8B52A23C35C0400002B27D1012632008E
:1019C0006368D0279A403F061849BA61206801220F
:1019D00008F0B2F9164D01222900206808F0ACF990
:1019E0002200012329003C32206808F0ADF92200D2
:1019F0000123290020683D3208F0A6F963689E4063
:101A00002A237E61E35C002B04D1F8BD094804F071
:101A10009BFFD3E73C230848E15C05F087F83D23B2
:101A20000648E15C05F082F8EFE7C04655A40010D7
:101A30006FA4001064A1001080A1001094A10010F8
:101A4000F8B5CE46474680B5160005000C00FFF7F6
:101A5000AFFFFF2E4CD83C23EB5CB34248D826485E
:101A600004F072FF0123984642466B68234F9A4068
:101A70001300D02212069361914601233A002049B7
:101A8000286808F061F929003A0001233D312868EF
:101A900008F05AF91B493A000F000123286808F0A2
:101AA00053F9330022003900286808F04DF9424606
:101AB0006B689A4013004A4653612A23EB5C002B63
:101AC00004D10020C0BCB946B046F8BD0E4805F0B0
:101AD0002DF8002E08D00D4DA619217828000134CC
:101AE00005F024F8A642F8D10A2004F0E1FEE8E768
:101AF00001204042E6E7C046A8A100104C26002085
:101B000057A400106FA40010C0A10010D0A10010B5
:101B1000F0B5D6464F464646C0B582B06B46D91C96
:101B2000142301270B7000233A0001AE3370436881
:101B300004009A401300D022120692469361006876
:101B4000012208F0F9F81F4D320029000123206816
:101B500008F0FAF805236B44984629004246012311
:101B6000206808F0F1F806236B44994629004A469C
:101B70000123206808F0E8F86B46DE1D32002900DA
:101B80000123206808F0E0F863689F4053465F61D6
:101B90004B461A783423E25443461B78626B5B1041
:101BA0005B4223630323D1170B409B189B10636395
:101BB00033785B105B42A36302B0E0BCBA46B14627
:101BC000A846F0BD6FA40010F0B5CE4647460125EB
:101BD00080B517002A0083B001AE98460B0C337015
:101BE0000B0A7370436804009A401300D022120657
:101BF0009146B170006893610C49012208F09CF88D
:101C000031000322206808F097F843463A0000218B
:101C1000206808F051F8636800209D404B465D61E4
:101C200003B0C0BCB946B046F0BDC04673A40010B6
:101C3000F0B501254F4691462A004646984643682E
:101C4000D6469A401300D022C0B504001206924630
:101C500082B093610F0001223E49006808F06CF8E1
:101C60002A00636801AE9A40130052463A49536114
:101C7000206835709361012208F05EF8012332007C
:101C80000021206808F018F829006368994053463D
:101C90005961307843B2DB119A46C3102B401B02C6
:101CA0009C465346421080102A402B400540604617
:101CB0002D0403432B4310060343E361002A44D061
:101CC00080239B029F423CD84246BA189A4227D8AA
:101CD0003B0C3370B7703B0AD0273F06737001226C
:101CE000B96120681D4908F027F8050001281AD1BC
:101CF00003223100206808F01FF8032819D142465A
:101D00004946206808F018F8404516D1636800205D
:101D10009D407D6102B0E0BCBA46B146A846F0BD28
:101D2000DB1B9846D4E70E4804F000FF0120404238
:101D3000F0E70C4804F0FAFEF8E70B4804F0F6FE72
:101D4000F4E70A4804F0F2FEF0E7094804F0FCFD6D
:101D5000ECE7C04676A4001074A4001072A4001032
:101D600000A200101CA200103CA20010ECA1001068
:101D7000D4A1001070B5040001260121806800F094
:101D800099F90121E06800F095F90121206900F03E
:101D900091F9606800F044FA32006368D0259A40F7
:101DA00060692D066A626A611D2826D9A0691D280E
:101DB0002CD9012500232A0023626368D0269A408B
:101DC0003606B26116490122206807F0B5FF2200ED
:101DD000042300212068203207F06EFF2A00636888
:101DE00010499A4020687261B261012207F0A4FF95
:101DF000636800209D40756170BD00F011FA636951
:101E0000A0699E406E62AE611D28D2D800F008FA2B
:101E10000123A2699340D022120653625361C8E79E
:101E200071A4001075A4001084B010B5059303AC24
:101E30004300039104928000195B241862680D9B93
:101E40009A4208D80C9A0E98FFF7BEFE002010BCEC
:101E500008BC04B018471900024804F067FE0120CE
:101E60004042F4E750A20010D0231B061B688D4AA5
:101E70009900F0B54E46894651585A4253412F2297
:101E800057464546DE465B4293439846864BE0B54F
:101E90009C4683B000270191E044002935D0834B54
:101EA0000F269B464246FB0808339B009C580123A3
:101EB0003D009A460837002C1ED0310021402642B2
:101EC00014D05B464A469A585346AB401A420DD14D
:101ED000072208002A40920090400200EB08744854
:101EE0003C339B001A502800019B98472409013578
:101EF000002C01D0BD42E0D3202FD3D103B0F0BCE1
:101F0000BB46B246A946A046F0BD684B00210F2251
:101F10009B460124CD082B00404608339B001B58EC
:101F200008000831002B00D19DE017001F40BC467F
:101F30001A420BD05F464E46BE59270087403E42AC
:101F400004D166465A4F3C35AD00EE511D0900D113
:101F500089E017002F402A4211D02600451CAE40D0
:101F60000195B4465D464E46AE5965462E4206D1B1
:101F7000019D4F4EED083C353F01AD00AF511D0AAC
:101F800071D017002F402A4211D02600851CAE4088
:101F90000195B4465D464E46AE5965462E4206D181
:101FA000019D434EED083C353F02AD00AF511D0B86
:101FB00059D017002F402A420AD02600C51CAE4037
:101FC0000195B4465D464E46AE5965462E424ED00A
:101FD0001D0C48D017002F40BC462A4209D00126CC
:101FE000071DBE40B2464E46304DAD5956463542AD
:101FF00045D01D0D37D016002E40B4462A4209D0D8
:102000000126471DBE40B2464E46284DAD595646A4
:1020100035423ED01D0E26D016002E40B4462A4230
:1020200010D00126871DBE40B2464E461F4DAD5909
:102030005646354206D16646FD083C3537061C4EED
:10204000AD00AF511B0F0730002B0CD04D465E4644
:102050007759250085402F4205D1C008144D3C30EA
:102060001B0780004351202900D053E746E7019D1C
:102070000F4EED083C353F03AD00AF51A8E7654674
:102080002D04AC466646FF083C37BD00084FEE51B4
:10209000AFE76646FD083C353705054EAD00AF514C
:1020A000B8E7C0464420002030410140E825002028
:1020B00000400140094A10B594464024830063441F
:1020C0001A68C000624080341440802252011343D9
:1020D0001C60034B9C466044416010BD04C001403D
:1020E00000400140074BC0009C4660440368090261
:1020F0005940C0239B00194080235B0103431960B2
:102100007047C04604400140D0231B061B6830B511
:102110000500584243412F205B4283430D48EC08A1
:102120008446072028408000814020000A4D3C3032
:1021300063448000A40041511B19002A04D080226E
:1021400092011343196030BDC022920113431960FC
:10215000F9E7C0463041014000400140F8B51D009C
:10216000D0231B061C680600604244412F206442B5
:1021700084432748F7088446072030408000814088
:102180003800244E3C3064448000BF008151E41983
:10219000002A11D080229201224311601C681E4E39
:1021A000A400A359002B15D0002D25D0A551012145
:1021B0000D2000F0F7F8F8BDC02292012243116013
:1021C0001C68154EA400A359002B0CD0002D18D06C
:1021D000A551F0E7002DEAD000220D200F49A551AE
:1021E00000F042F9E3E7002DE5D000220D200B4975
:1021F000A55100F039F9DEE70D20084900F02EFA6C
:10220000D4E70D20054900F029FAA551D3E7C046CF
:10221000304101400040014044200020691E001070
:102220000123D0228340120693629361094A402120
:102230009446830063441A68C0004A4080311140CC
:102240008022520113431960034B9C4605236044CE
:102250004360704704C0014000400140024B1868D1
:102260008007C00F7047C04600C0064070B5EFF34E
:10227000108C72B60D4D2B68002BFCD0BFF35F8F16
:102280000724CB08C618C05C01230C40A3401C00E7
:102290000440034207D118433070BFF35F8F2C60B6
:1022A0008CF3108870BD100001F0A6FF2C0100D047
:1022B000F8B54746CE46884680B5EFF3108C72B627
:1022C000214D2C68002CFCD0BFF35F8F9A422CD894
:1022D000D4080727055D061901241740BC402C428D
:1022E0001FD007210127894609E0D408055D06199A
:1022F0004C4639001440A1400C00294211D0013253
:102300009342F2D201204042BFF35F8F00220E4B76
:102310001A608CF3108800280FDBC0BCB946B046A9
:10232000F8BD254310003570EEE7BFF35F8F002343
:102330002B608CF31088012040424346002BECD0E8
:10234000089801F059FFC0462C0100D00021044B31
:10235000044ABFF35F8F02C39342FAD17047C0466D
:10236000000100D0800100D0044A1078431CDBB289
:10237000172B00D9102313707047C046CC0F0020D4
:1023800010B5064B064C82B00100009318221F23A3
:102390002000FFF78DFF02B010BDC04690A20010D4
:1023A0005C20002001238340002904D0034A1360ED
:1023B000034A13607047034A1360FBE780E200E0C2
:1023C00000E100E080E100E001238340014A136066
:1023D0007047C04600E200E0084B10309B68800068
:1023E000C358002B07D0064A00209B1A2F229A427E
:1023F0004041C0B270470020FCE7C04600ED00E05D
:10240000D00F0020024B10309B688000C0587047EE
:1024100000ED00E070B50D00EFF3108672B60F4AC4
:102420001368002BFCD0BFF35F8F0D4B10309B68FF
:1024300084001B590B4A934203D09D4201D001F006
:10244000F3FE074B9B681D51BFF35F8FBFF35F8F98
:102450000022024B1A6086F3108870BD240100D060
:1024600000ED00E0CD010010F0B557464E46DE46C7
:102470004546E0B585B0060000911700EFF3108BDC
:1024800072B66A4A1368002BFCD0BFF35F8F002539
:10249000674B5D579A46002D00DAA9E06B00654C4A
:1024A00001935B199B009846A146C1444B46524696
:1024B0009B7910361370604BB6009B6899590B1BC3
:1024C0002F2B33D95D4B994200D0ACE0019B4246A3
:1024D0009C465B4B6544AD0063535A4B0232A218D5
:1024E000043B9B1A1B05584A5B0D651913436B800F
:1024F000564B0121AB80FF23AB71009BEF71AB60AA
:102500004B460B4319004C4B9B689951BFF35F8FAF
:10251000BFF35F8F0022454B1A608BF3108805B024
:10252000F0BCBB46B246A946A046F0BD01200A0059
:102530008243D3798C46BB4231D845461300444987
:102540001B1B5B415943090D3D4B63533D4B02350A
:102550006519043B5B1B1B053B4D5B0D2B43AA46DA
:102560004D466B800425AC465546E044131F444459
:102570001B1B1B055B0D1D434B46997100999D80EC
:1025800099604946DF71334B01431360BBE7580044
:10259000C01880002018C179B9422FD90200062343
:1025A000D356002BF3DA02932B4B61460393131D92
:1025B0009A4604235B429C46E14450464B461B1A14
:1025C0001B055B0D9C46204B957198466346404623
:1025D00003439380019B5A199200039BA418A38084
:1025E000029B1C4AA371009B2260E771A3608AE7EB
:1025F00001F01AFE002553465D574FE7908802937D
:102600004005131D9A46031561469C464046D44436
:10261000634604302018181AE0230005400D1B0201
:1026200018430390C5E701F0FFFD4FE7240100D0F8
:1026300048260020D00F002000ED00E0CD01001062
:1026400000A1FFFF0010002000E0FFFF01BDFFFF21
:10265000AAAA00000148804701BD0000F0B5DE468F
:1026600057464E464546E0B50C0083B0EFF3108860
:1026700072B65D4A1368002BFCD0BFF35F8F5B4BD3
:102680005B499A68030010339F00D5598D4239D0B9
:10269000A5424AD0574EAA1B2F2A33D80122924670
:1026A000824091464846544A12681040019048467C
:1026B000524A1060BFF35F8FEFF305829346002A02
:1026C00035D0934201D001F0AFFD2A0053469A4322
:1026D0009068844208D175E04B005B189B00F318AA
:1026E0009868A04234D01A00062151560029F3DA26
:1026F000844253D0019B002B26D04A46404B1A609F
:102700003D4B1A60394B9B68DD51BFF35F8FBFF3C0
:102710005F8F0022344B1A6088F3108803B0F0BC3E
:10272000BB46B246A946A046F0BD0D00EAE72A0026
:1027300053469A4390688442D6D10620105613001F
:10274000002809DA0D0031E04A462C4B1A60D9E71F
:1027500006201856002822DB420011188900741840
:102760008A46A1689960E179D9710621615699710B
:10277000002925DBA488F11A64052415544409199D
:10278000E0240905490D24022143998013181D4AAC
:102790009B001178F31899711070ABE7130059463C
:1027A000002914D1FF3191711749918015490A7898
:1027B0009A71164A9B1B5B415A43120D0A7099E7A6
:1027C0001349E2E70620105613000028C4DA114A24
:1027D0001149D21A083A5002400D014399800F491D
:1027E00052080A43DA8085E7240100D000ED00E0BA
:1027F000CD010010D00F002000E100E080E100E0FA
:1028000080E200E04826002001BDFFFFAAAA0000E8
:1028100001BD00000A10002000F0FFFF00F8FFFFDC
:1028200070B5EFF3058101240443EFF3108C72B609
:10283000214A1368002BFCD0BFF35F8F1F4B0500AC
:102840001F4AED1A6D416A43120D1E4D8900AE6894
:1028500052B27658A6421CD00621595691421CD03D
:1028600012215956914222D01E215956914220D010
:102870002A2159560324914210D0134B19781A700B
:102880008171BFF35F8F00220B4B1A608CF31088AD
:1028900070BDAB680D4C5C50EFE700246100091976
:1028A00089005B18FF21997109499980E5E70124A6
:1028B000F4E70224F2E7C046240100D0D00F002044
:1028C000AAAA000000ED00E048260020CD0100107B
:1028D00001BDFFFF054B064A1360064A13605360B3
:1028E0009360D360136153619361704780808080EF
:1028F00000E400E004E400E010B5084B084C82B0AE
:1029000001000093002205232000FFF7D1FC0028DE
:1029100001DB1F23181A02B010BDC046ACA2001084
:1029200051260020024B9C4661448900016070479B
:102930004000003410B50400FFF716FD0100200030
:10294000FFF7F0FFFF232371BFF35F8F10BDC04679
:1029500010B50400FFF708FD01002000FFF7E2FFBB
:10296000FF23A380BFF35F8F10BDC04610B50400E6
:102970000120FFF705FD034BC3189B002360BFF345
:102980005F8F10BD40000034034B9C4661448900BA
:102990000160BFF35F8F70474000003483680B48CD
:1029A00010B58446614462441201090159189B180C
:1029B0005C684A680120944201D802D00020C0B26D
:1029C00010BD1A680B689A42F9D8F7E7FFFFFF0FAE
:1029D00010B508000B690C009847002802D0206849
:1029E000616810BDE06000210020FAE70A4B196819
:1029F000EFF3108072B60A68002AFCD0BFF35F8F35
:102A00001B68BFF35F8F00221A6080F3108840BFFD
:102A1000002000217047C046FC250020F8B557462D
:102A200045464E46DE46E0B598460CAB1C780DABED
:102A30001B78070091469A460568002C59D1AC7B5B
:102A4000002C3BD0660029683619033E89194B7863
:102A5000AB73002B00D1EB7300238B704B700B70AA
:102A60002D4BE218BB6812019B184A461A60424679
:102A70005A600A9A9A600B9ADA6000238B704B7046
:102A80000B706B7B9B46002B26D022006B6859464F
:102A9000A86898475B465B005B442A68033B0028B4
:102AA00012D058469619B070D118D35C002B00D0C4
:102AB00073705B460C706B735C450ED0F0BCBB460C
:102AC000B246A946A046F8BDD3189C709119925DF4
:102AD000002A1CD15B460B706C734A464346387D16
:102AE00000F02CFD051E0AD10E9B002BE6D01D70B8
:102AF000E4E7660029683619033E8919B0E75346B2
:102B0000002BF1D12100386800F060FFECE75A702B
:102B10005B460B706C73E0E7FFFFFF0FF0B5DE461E
:102B200057464E4645460023E0B58BB00893684BA8
:102B30008200D45800239B46099000F06BFC0200F1
:102B40000B006068EFF3108A72B6564601680029E0
:102B5000FCD0B246BFF35F8F21684F7B8C46002FBD
:102B60002ED0A5685B49A9467918090189444946D0
:102B70000868496805000E00AD1A9E41002E5FDD11
:102B800002000B00099800F0D9FC002300229946AE
:102B9000002306920793002398466368BFF35F8F74
:102BA0005A461A608AF310884346002B12D1002837
:102BB000C3D10BB0F0BCBB46B246A946A046F0BD9F
:102BC0000023002299460023069207930023002049
:102BD0009846E2E7089B494618023843C0476268B6
:102BE00005000E00EFF3108A72B61368002BFCD0BC
:102BF000BFF35F8F002E41DB2B00334302D02369EC
:102C0000002B56D12368D97B002905D01A684800CB
:102C100041185218033A57709A7B002A00D19F73CB
:102C2000DF73E268013FD35D0133D3555B46236117
:102C30006368BFF35F8F5A461A608AF310887CE797
:102C4000002E02D1002D00D09AE70021604600F04E
:102C50003BFE4B461A685B68069207934B469B689F
:102C600098464B46DB689946E368DB19013B1B78C5
:102C700008931B020343236100208EE72369002B86
:102C8000C0D0069A079B8021521BB34109068B4294
:102C900002D30122104B52420021049101310391D1
:102CA000494601914146200002970091FFF7B6FE88
:102CB000BCE700F0AFFB2A00330012184B41802123
:102CC00009068B42E8D30122034B5242E4E7C04697
:102CD00030250020FFFFFF0FFFFFFF7F10B5144CD2
:102CE0006368002B04D00A211248FFF71BFE10BDB9
:102CF0002300114A1021206800F002FD032000F09B
:102D00006BFB032000F082FC03200C4900F0D0FB99
:102D1000FFF72AFB0A4B9C4603232375D0231B068F
:102D20001B6860446375074B80006060DC60DAE715
:102D300018100020FC2500209D2900101D2B0010DC
:102D40004000003430250020004870471810002053
:102D500070B50500182003F0F7FC164904000200C6
:102D6000280000F09DFC10212060280003F0FEFCEC
:102D70000121A060280003F0F9FCE060012000F0D0
:102D800037FB050000F042FC28000B4900F090FBE7
:102D9000FFF7EAFA094B25759C46D0231B061B68F2
:102DA00060446375064BAD0080006060EC5020000D
:102DB00070BDC0469D2900101D2B0010400000343E
:102DC00030250020F0B557464E464546DE46E0B574
:102DD00085B0019310AB1B780600039300239A463D
:102DE000984600927268EFF3108B72B61368002B4E
:102DF000FCD0BFF35F8F3568AC7B002C00D16EE058
:102E000067002B683F19033FDB195A78AA73002A21
:102E100000D1EA73484AA118B26809015218009813
:102E20000199106051600E9991600F99D1604246EE
:102E30009A705A701A706B7B9946002B00D16BE028
:102E400022006B684946A86898474B465B004B4494
:102E50002A68033B002856D04846D719B870D118C5
:102E6000D35C002B00D07B704B460C706B734C45D1
:102E700053D0F3681B19013B18787368BFF35F8F59
:102E800042461A608BF310885346002B08D100028B
:102E9000204305B0F0BCBB46B246A946A046F0BDF3
:102EA000039B002B46D00E9B00200F9998470300F0
:102EB0000B433FD004000D1E1ADA009A019B121B2F
:102EC000AB410092019380221206934204D3012366
:102ED0001A4C5B4200930194039B9A4682E7736805
:102EE000BFF35F8F1C608BF3108801204042D0E756
:102EF00000F090FA802200196941120600900191B9
:102F00009142E9D3E3E7D3189C70D119D25D002A2E
:102F100000D05A704B460B706C73307D009A019B49
:102F200000F00CFB82460028A3D02100306800F09E
:102F30004DFD9EE70020ACE7FFFFFF0FFFFFFF7F87
:102F4000407D7047F0B557464E46DE464546110077
:102F5000E0B585B006009C46109F194300D1E9E01A
:102F60006146DB170193009353401C00019B4B40CB
:102F70001D0000980199241A8D4163460E997B60CB
:102F80000F9BBE607B6139613A6000F043FA802399
:102F9000001969411B0600900191994204D3012355
:102FA000694C5B420093019400239846674B10974D
:102FB000039300239946109B3700464698467A684B
:102FC000EFF3108B72B61368002BFCD0BFF35F8F4A
:102FD0003D68AC7B002C00D179E063001B19033BFA
:102FE0001A00944602932B6863445A78AA73002A05
:102FF00000D1EA73564AA118BA680901521800981C
:10300000019910605160039991604146D1604A4630
:103010009A705A701A706B7B9A46002B00D17BE035
:1030200022006B685146A868984753465B0053449A
:103030002A68033B002800D164E0D1188C46514631
:10304000029810188170D35C002B00D04370634647
:103050001C7053466B73350054455ED0FB687A682C
:103060001B19013B1B78BFF35F8F494611608BF33F
:103070001088002D0CD147461B0223430135280040
:10308000FB6005B0F0BCBB46B246A946A046F0BD09
:10309000434640461B699847061E24D043460CCB46
:1030A000100018434CD014001D1E1FDA009A019B1B
:1030B000121BAB410092019380221206934200D270
:1030C0007DE70123204C5B420093019477E73E00AB
:1030D00047467368BFF35F8F1C608BF31088012332
:1030E00000255B42CBE747460023C8E700F092F992
:1030F000802200196941120600900191914200D28C
:103100005DE7DEE70298D3189C701118125C002A64
:1031100000D05A7053460B706C73387D009A019B37
:1031200000F00CFA051E00D198E72100386800F085
:103130004DFC93E700230124002501229C461CE757
:103140004746350000239AE7FFFFFF7FD129001093
:10315000FFFFFF0FF0B504000D0006267642F717BB
:10316000C64636196F4100B584B08F4214D811D0CD
:1031700000F050F932003B00121A8B41002B15DC95
:10318000002B3ED02000290000F082F904B080BC62
:10319000B846F0BD8642EBD90026002700F03AF988
:1031A00032003B00121A8B41002BE9DD0023029311
:1031B0000193154B3200009314483B00FFF702FEC9
:1031C0000028DFDB00239846BC46114A114F7B6A7A
:1031D0009C4504D8B96A8E42D4D99C45D2D1116895
:1031E000EFF3108072B60B68002BFCD0BFF35F8F3B
:1031F0001368BFF35F8F4146196080F3108820BFCA
:10320000E5E7002ABED0D1E7ED2900101810002014
:10321000FC2500200040054070B5060000F0FAF8DB
:10322000FA2204000D00002330000021920003F078
:1032300029FA8023001969411B06994202D3012013
:1032400002494042FFF786FF70BDC046FFFFFF7F87
:10325000F0B5EFF30583CE46474680B505000C0078
:1032600085B0002B12D02A4A0020536AA34203D310
:10327000926A0130AA4204D305B0C0BCB946B04638
:10328000F0BD1B1B5A1E9341D8B2F5E7214E0293A5
:103290000193214B0200009330000B00FFF792FDD9
:1032A000031EE0DD20BF7168EFF3108772B60A6875
:1032B000002AFCD0BFF35F8FDAB29446FF22306859
:1032C0001A40417B61450FD001688946510088460C
:1032D00049469044414403398978002904D1326930
:1032E000934209D1316107E0F1681B0A8A18013A5B
:1032F0001278DBB29A4207D07368BFF35F8F002267
:103300001A6087F31088AEE7614600F05FFBF3E7D1
:103310000040054018100020ED290010F0B5EFF333
:103320000582D6464F4646461000C0B51038EFF32A
:10333000108872B6214C2368002BFCD0BFF35F8F3E
:103340000123190081401E4D1F006963AA461D4DCF
:1033500029601D4D2E78AC463500C5402F402B42CC
:1033600015D053465F6A194B8500EB589F4218D31E
:103370006246174B8E43EB581670BFF35F8F0022E7
:10338000226088F31088002B06D0984704E0BFF332
:103390005F8F276088F31088E0BCBA46B146A84624
:1033A000F0BD0C4B92009C46624413681360BFF35F
:1033B0005F8F0023236088F31088EDE7280100D099
:1033C000004005403C700540502600200C2600209F
:1033D000341F0020D03F054010B5034B01001800FA
:1033E000024AFEF743FF10BD44260020C8A2001089
:1033F00010B5064B064C82B0010000930022032357
:103400002000FEF755FF02B010BDC046ECA2001030
:1034100044260020034B596A0A00986A596A8A4276
:10342000FAD170470040054070B504000D00174AFE
:10343000536A1900966A536A8B42FAD13000190018
:1034400024184D41AB4216D813D0104B2A005B6AAA
:103450009D4203D90D494B6A9342FCD3934207D155
:103460000A4A02E0516A994202D1916AA142F9D313
:1034700070BDA642E9D9054B5B6A1C005A1CEFD00F
:10348000012201246442E5175242E3E7004005406F
:10349000064A536A9942FCD807D1044B02E05A6AA3
:1034A000914202D19A6A8242F9D3704700400540A6
:1034B00070B504000D00EFF3108672B61A4A136857
:1034C000002BFCD0BFF35F8F002D1BD02000FEF738
:1034D00099FF164981420AD02000FEF79BFF012187
:1034E0002000FEF75FFF0123A340114A1360114B38
:1034F000A400E550BFF35F8F00220B4B1A6086F3E8
:10350000108870BD0121A1400A4BA200D5500A4B82
:1035100020001A788A4305491A70FFF79FF80021A6
:103520002000FEF73FFFE5E7280100D01D33001023
:1035300038600540341F002050260020F0B54F466B
:10354000D6464646C0B507002B4C616A0D00A66AF8
:10355000616AA942FAD18B4208D805D00120E0BCAB
:10356000BA46B146A846F0BDB242F7D9EFF3108A89
:1035700072B6224801680029FCD0BFF35F8F012595
:10358000BD401F491C4C8846097889462943C9B269
:103590008C46414660460870391D890065630A51B2
:1035A0001849B8004350216A0020294219D0616AA5
:1035B0000800A66A616A8142FAD18B4219D801D10A
:1035C000B24216D8CC450BD00B4B1F221D625D6357
:1035D00001233A4093400C4A136043464A461A700E
:1035E0000120BFF35F8F0022044B1A608AF310881A
:1035F000B5E70020F5E7C04600400540280100D0AF
:10360000502600200C26002080E200E0EFF3108C12
:1036100072B60A490B68002BFCD0BFF35F8F012301
:103620008340074A0748136202789A430270BFF347
:103630005F8F00230B608CF310887047280100D047
:10364000004005405026002070B506000D00140013
:1036500000291DD0002A12D0736880689847620044
:103660006B0012195B193168033A033B002808D03C
:103670008A189570C818CB5C002B0BD104702800F9
:1036800070BDCB189C7088188A5C002A05D1057023
:103690002000F5E753700470F1E75A700570F7E702
:1036A000F0B5CE460700894600B51021012016006E
:1036B00003F05CF803210500380003F057F84B468F
:1036C0006B600023FCB26B73013328602C73AE6017
:1036D000AB73EC73012C06D9421C0133DBB21370BF
:1036E00003329C42F9D1FF233B405A00D318C6183D
:1036F0000023033E2800737080BCB946F0BDC0466D
:1037000010B583600023CCB243730133426004736D
:103710008373C4730068421C012C05D90133DBB2EA
:10372000137003329C42F9D1FF230B405A00D31887
:10373000C01800230338437010BDC04670B50500A3
:103740000C1E07D0630001681B19033BCB185A7885
:10375000002A01D1200070BD5000801803380918DC
:1037600000204E784870210058702800FFF76CFF49
:10377000310004002800FFF7E1FF0600002C20D0F4
:103780000028E7D0320021006B68A86898477200D3
:10379000630092191B192968033A033B002808D0DB
:1037A0008A189470C818CB5C002B00D05370067038
:1037B000D0E7CB189E7088188A5C002A00D05A7017
:1037C00004703400C6E7C046F0B557464546DE46AD
:1037D0004E46E0B50D006F0001687F19033F0400FD
:1037E000C85D83B00192CA19002850D043001B184D
:1037F000033BCB185E78B446002E1AD1019E002EF2
:1038000042D0E67B002E04D073009B19CB18033BFB
:103810005D70A37B002B00D1A573E57300282FD129
:103820000023537003B0F0BCBB46B246A946A04685
:10383000F0BD72006244033A8A185178884600212C
:10384000517089465970320001002000FFF7FCFEDC
:1038500043468246002B07D05B0021684344033B6C
:10386000CB185A78002A16D1424651462000FFF75D
:10387000EBFE2168019BCA19002BC2D10028CFD0D2
:1038800043001B18033BCB1800219970C8E7019B2C
:10389000002BB6D1C4E750008018033809184878C7
:1038A000834648464870587041462000FFF7CCFEDA
:1038B000594680462000FFF741FF414602002000A4
:1038C000FFF7C2FE8046CFE7F0B557464546DE46D5
:1038D0004E46E0B583B00191457B04006F0000685F
:1038E0007F19033FC15DC219002952D04B005B18FC
:1038F000033BC3185E78B446002E1CD1019E002EF7
:1039000044D0E67B002E04D073009B19C318033B00
:103910005D70A37B002B00D1A573E573002931D125
:10392000002328005370617303B0F0BCBB46B2465D
:10393000A946A046F0BD72006244033A821850784E
:103940008046002050708146587032002000FFF7FA
:103950007BFE43468246002B07D05B002168434430
:10396000033BCB185A78002A17D142465146200013
:10397000FFF76AFE019B01002068C219002BC0D12D
:103980000029CDD04B005B18033BC3180020987072
:10399000C6E7019B002BB4D1C2E750008018033862
:1039A00009184878834648464870587041462000B8
:1039B000FFF74AFE594680462000FFF7BFFE41460A
:1039C00002002000FFF740FE8046CEE770B50500FC
:1039D00000292CD0437B8B422ED04C000068641809
:1039E000033C0419A278002A21D053009B18033B02
:1039F000C25CC6188A4202D11BE0002A08D05300DC
:103A00009B18033BC3185A788A42F6D162785A70E1
:103A1000002301222800A3706370FFF7D5FE697BA5
:103A200002002800FFF710FE6873012000E000206C
:103A300070BD63783370EBE701221900FFF7C4FE15
:103A4000F2E7C046F8B5CE464746040080B50620EA
:103A50000D0000F021FA061E53D0534B5349E318D2
:103A60005A1E93418022120494465B429B0D504A99
:103A70009B05634413604F4A136018008A689043A3
:103A8000FBD1494B4C4AE31859424B4180215B0022
:103A900049000620995200F0FFF92900C00001F00A
:103AA000D9FFC30932D14022012190466162A3624D
:103AB000266BF30736D427008025E36A00232C37D2
:103AC0006D013D432B600620266300F0E5F9414679
:103AD000800001F0BFFF236B06009846DB073BD454
:103AE0006023E26A5A400E3313402B60434623633F
:103AF000802310229B013B431A60304B2363032336
:103B0000A3643000C0BCB946B046F8BD2C4A93420D
:103B10003FD900232B492C4A6162A362266B904651
:103B2000F307C8D52200C02330329B011343234A38
:103B300006201A60656AA36AAD01ED1800F0ACF9C1
:103B4000224901F087FFAD020100280001F082FF49
:103B50000021FFF769FCAEE72200C02330329B0151
:103B60001343164A06201A60636AA26A9B019946AB
:103B7000914400F091F94B4614499B02994601F09B
:103B800069FF0100484601F065FF0021FFF74CFC8A
:103B9000A6E77F22990188460240013252081900A7
:103BA0009044130082E7C0460080FCBF00C0004084
:103BB00000E0004000F000401C260020010300004F
:103BC000FEFF0000FFFF0000C0FF3F004E0E0000A0
:103BD00010B50C2082B000F0B7F9FEF73FFB0028CB
:103BE00010D08B4B8B488B498B4A1860596098607A
:103BF000D960186159619861D961186259625A6235
:103C000002B010BD854CA06700F04AFA0122844B37
:103C10001A60636C012BFCD10322824B1A607F4A2D
:103C2000936B012BFCD1013301217F4A7F48009324
:103C3000043300F037F905237D4A009301217D48C4
:103C400000F030F97C4B5A68FF2A02D880225200DB
:103C50005A608022734B6E4C12011A602169002950
:103C600007D0606901F0F6FE013043001B18033BEA
:103C7000FDD2E022704B714819680A4002600222AE
:103C80001968514001320A40042102609A681142C9
:103C9000FCD080216A4A09011160802252005A60DA
:103CA000684B2361684B5968FF2900D85A6003228A
:103CB00001215B4B1A60644A93681942FCD0E023EF
:103CC0001068034061480360126803234A400221E0
:103CD00013405D4A036093681942FCD080215C4B1D
:103CE0000901196080215B4B4900516063615A4BA7
:103CF0005A68FF2A00D859608022584B12011A6076
:103D0000E169002907D0606901F0A4FE0130430099
:103D10001B18033BFDD2E0234F4A11680B4050496A
:103D20000B6080214F4B090119608021394B4900FC
:103D30005160E3614C4B5A68FF2A00D859608022D9
:103D40004A4B12011A60216A002907D0606901F00C
:103D500081FE013043001B18033BFDD2E023424AA1
:103D600011680B4042490B608021424B09011960E8
:103D700080235B0053608022264BD20223623E4B9D
:103D80005968914200D25A6080223C4B12011A605D
:103D9000616A002907D0606901F05CFE01304300D0
:103DA0001B18033BFDD2E023334A11680B40344912
:103DB0000B608021334B090119608023DB025360C3
:103DC000154B6362304B5A68FF2A02D8802252009A
:103DD0005A6080222D4B12011A60A169002907D078
:103DE000606901F037FE013043001B18033BFDD230
:103DF000E023254A11680B4025490B608021254BA3
:103E00000901196080235B005360124BA361F7E640
:103E100018160020006CDC021BB700000080004078
:103E20003CB0004030B00040002F68590080024094
:103E3000008C864700C00240308000403090004037
:103E400030A00040001BB7003C8000403C90004088
:103E50003CA00040405973075480004054B00040DB
:103E60005490004054A000406080004060B000408A
:103E70006090004060A000406C8000406CB000404A
:103E80006C9000406CA000404880004048B000406A
:103E90004890004048A00040014B8000C058704747
:103EA00018160020F8B5040022481E0017000D0067
:103EB00001F0D0FD0100380001F0CCFD069B360476
:103EC0001B031E432368002B22DB1B4B1B49E318FB
:103ED0005A1E93418022920194465B421B0B184A62
:103EE0001B0363441360174A13601F008A689743DB
:103EF000FBD1C022231D92011A4321232560A0601B
:103F000013602368002BFCDA0823E6601360F8BD19
:103F10003F2322681340AB42D7D1A3681B051B0D7A
:103F20008342D2D1EE22E368D2021340B342CCD115
:103F3000EDE7C046001BB7000040FDBF00C00040D9
:103F400000E0004000F000408023024A9B00034351
:103F5000D362704700800540024B1A68024B5A60DA
:103F60007047C046E424002000800540194B1A4ADF
:103F700010B5DA618022194BD2051A60184C194A23
:103F8000146000290AD0E022174BD2041A600028DE
:103F900009D18022144B12061A6010BDE022D2040F
:103FA0001A600028F5D043011B1A9B0018188023C3
:103FB00000015B04984209D203000C4A136080227E
:103FC000044BD2055860084B1A60E6E7084B18000E
:103FD000F3E7C046008005402131B76A00B00540D4
:103FE000FCFF01000820014000A00540E42400205F
:103FF000FFFFFF0010B580241C4BE4051C60002867
:104000001AD001231A4C18431A4BDC611A4C444055
:104010001C62596298628021144BC90519601748C7
:1040200017490860E021C9041960002A07D18022DD
:10403000144B12061A6010BD0E4BD861EBE753010A
:104040009B1A9B009A18802312015B049A4209D2A2
:1040500013000D490B60074B5A608022094BD205B3
:104060001A60E8E7094B1A00F3E7C04600B00540C4
:10407000D3C007B0008005402D3FF84FFCFF010082
:104080000820014000A00540E4240020FFFFFF00BD
:10409000024B9868431E9841C0B2704700800540AB
:1040A000AA23064A1B0113602F230549D360054B41
:1040B00019605368002BFCDA7047C046004002408C
:1040C00000B0FA00006002402C4B2D4A70B51A6017
:1040D0002C4A2D4B2D491A6014008B689C43FBD150
:1040E0002B4D2C4EB54208D2013E761BB60808CDAA
:1040F000984723000134B342F9D1FFF769FD264AFE
:10410000214B1A60214A9368DB43DB01DD09002B58
:10411000F9D14022214B224C224E9A675A671A67E6
:10412000DA66B44208D223682000002B20D008347D
:10413000FEF70EFCB442F6D31B4C1C4EC022B168F5
:10414000200002F033FBB460FEF700F9FEF7C2FB7B
:10415000FEF7C4FD164C174EB44208D2013E361B82
:10416000B60808CC98472B0001359E42F9D170BDA6
:104170000834FEF7DFFBB442D5D3DDE700E00040B2
:10418000BFCDFBFEFE7F3C0000F0004000C00040C1
:10419000F815002008160020FFFFFF0100F0014085
:1041A000F0150020F81500200000002000ED00E0D0
:1041B000081600201416002000BEFDE7094A03007F
:1041C0001068002805D00849C3188B4207D813602F
:1041D000704706480449C31810608B42F7D9012084
:1041E0004042F5E7DC200020000004205426002097
:1041F00010B5FFF7E1FFC0460FB400B5084883B023
:1042000002F0A2FB049B002B07D005A91800019126
:1042100001F0A6FB034802F097FB0120FFF7CCFF5B
:1042200000A3001010A3001010B50148FFF7E4FF31
:1042300014A300107047C046F8B55746DE464E46F8
:104240004546E0B599460A9B07009A460D9B88466D
:1042500093460B9C9B073BD10C9B9C423DD21E1B63
:104260000B9415000C005E442A004B4601352100DA
:104270002020B847B542F7D1A0460B9C002C20D097
:10428000454636195346321B013C185D29004B4602
:10429000B847002CF6D12B00350098460D9B9B07A4
:1042A0000FD55B46EC1A0C9BA3420AD946469846AA
:1042B0002A004B46310020200134B84701354445DF
:1042C000F6D32800F0BCBB46B246A946A046F8BDCE
:1042D00016001500002CD3D1E0E71600002CCFD13A
:1042E0001500EEE7F0B54F464646D646C0B584B059
:1042F00098460EAB1B7894469946129B0D9C109FD6
:10430000119E9A0725D4002E65D1BC4221D20122EC
:104310001A409246202C00D1E9E00C9A551E30221A
:1043200002E0202C00D17BE001342A55A742F8D8C6
:104330005246002A0DD0B4420BD20C9A551E3022A0
:10434000202C02D171E0202C2DD001342A55B4420A
:10435000F9D1DA063CD55A052ED4002C28D10F9A73
:10436000102A00D1B6E0022A00D1BCE030220C9C19
:10437000227001244A46002A65D15A0700D499E0E8
:104380002B220C9D2A55013403930C9B624600930B
:10439000029643460194FFF74FFF04B0E0BCBA46D3
:1043A000B146A846F0BD2024DA06EDD55A0503D45F
:1043B000A74266D0B44264D00F9A102A71D0022A64
:1043C00057D0202CE0D02200013430250C9FBD5462
:1043D000202CD9D0CEE7012215001D40AA461A4252
:1043E00036D04A46002A4AD10C321A4247D1BC4242
:1043F000A1D2202C91D1202E17D82024DA06C3D5A3
:104400005A051BD4202F01D0202ED5D11F220F9D5D
:10441000102D6FD0022DD8D162250C9FBD54D0E74E
:104420005246002A79D0202EBDD92024DA06ABD5F9
:104430005A0503D4202FE9D0202EE7D00F9A102A56
:10444000A2D12024A0E72D220C9D2A5501349BE700
:10445000BC4200D37DE7202C00D05EE7DA06F0D521
:104460005A05EED4202F62D0202EEAD134001F222C
:10447000CDE7202C00D187E722000134CCE7013EB4
:10448000B5E7621E012CC2D10F9A102A00D06AE74C
:104490009A063BD558220C9C2270283A627002245E
:1044A00068E79A060ED4202CCBD078220C9D2A5592
:1044B000013486E71A0700D466E720220C9D2A55AE
:1044C000013461E7202CBCD058250C9A12191570C4
:1044D000013476E79A0608D558220C9C22703022C7
:1044E0006270022446E76032F7E77822F5E7002A97
:1044F00083D1B3E7A21E013C9D0603D478250C9F0F
:10450000BD5460E758250C9FBD545CE778220C9C95
:104510002270483A627002242CE7DA0600D433E7AE
:104520005A058BD4202F00D044E71F226FE73C00B0
:104530001F226CE710B5002800D110BD02F0B8F9B9
:10454000FBE7C0460B0010B5002802D049681B6885
:10455000984710BDF0B557464E464546DE46E0B595
:1045600099B08246894690460893229A239B100070
:10457000190001F030FD002800D0CDE022982399E9
:104580000122D94B524201F021FD002800D0C3E0A6
:10459000229823990122D54B524201F009FD0028AF
:1045A00000D0B9E0229823990022002301F000FDF9
:1045B000002800D0F1E1229E239F8023269ADB0071
:1045C0001A400D92269A1A4201D106232493802381
:1045D000269A1B011A403B0093460996334300D0AC
:1045E000B3E0002A00D0C2E1002300240A930B9418
:1045F000002304250993259B0024AB4200D95C1BB2
:104600000223269A1A400C92269A134203D06B4238
:104610006B415B421C40099B002B07D00A9A0B9B05
:104620003000390001F063FC06000F002298239946
:104630000022002301F0BCFC002803D080210906E1
:104640007B181F00269AAA4B009601971340089EDC
:104650000493249B039402934246330049465046F8
:1046600000F0AAF90400002D67D02020269A4946C0
:10467000024013005A4253415B42621C18400A92A6
:10468000330022004530D047099A6F1ED317D41843
:104690005C40D30F9B46002501E0202D13D008AAD3
:1046A00094461F23200063440A2101355E1901F05E
:1046B000D1F93031317020000A2101F0CBF9260008
:1046C0000400092EE9D805230693002304930A3336
:1046D00003935B46089E029310AB0A9A00934946E7
:1046E0003300504605970195FFF7FCFD0C9A040036
:1046F000002A22D04246851A259AAA421DD9B046E0
:104700005746160022004346494620200135B84747
:104710000134AE42F6D810E0269B42460493259B16
:1047200049460393249B50460293229B239C00936B
:104730000194089B00F040F90400200019B0F0BC7F
:10474000BB46B246A946A046F0BD6A4B78009C46DF
:10475000400D604401F052FC674A684B01F0E5FBF4
:10476000674A684B01F0BAFB674A3B031B0B1A43CD
:1047700004000D0009981100644B002201F0A5FB14
:10478000634A644B01F0D1FB02000B0020002900BA
:1047900001F0A4FB01F04AFC099001F02FFC5E4AF5
:1047A0005E4B04000D0001F0C0FB00225C4B01F0E9
:1047B00095FB01F03BFC5B4A5B4B29000C90200011
:1047C00001F0B3FB04000C980D0001F017FC574AF0
:1047D000574B01F0AAFB02000B002000290001F05A
:1047E00074FB04000D0002000B000A940B9501F00D
:1047F0009CFB04000D000A980B9902000B0001F0CD
:104800006DFB00220E900F914A4B2000290001F011
:104810006EFB0022484B01F061FB02000B00200000
:10482000290001F064FB0022444B01F057FB020019
:104830000B002000290001F05AFB0A9A0B9B0D0087
:1048400080210400C905002001F03FFB02000B009D
:104850002000290001F042FB02000B000E980F9986
:1048600001F045FB0022284B01F038FB344B0C9C37
:104870009C4664442305002201F057FB04000D0010
:1048800002000B00300039000A940B9501F090FBF8
:1048900000285DD123002A00C625099963318D4285
:1048A000AD4159466D420435002900D1A3E61343BA
:1048B00063D030003900234A234B01F07FFB0028EE
:1048C00007D0002230003900204B01F071FB002896
:1048D00053D1249B002B00D18DE60D9B5A1E934192
:1048E000249AD31A249386E6FFFFEF7FFFFFEFFFA2
:1048F000FFF7FFFF01FCFFFFFB799F501344D33FFD
:10490000B3C8608B288AC63F0000F03F0000F83F24
:1049100061436F63A787D23F71A379094F930A4020
:104920000000E03F1655B5BBB16B0240EF39FAFE0F
:10493000422EE63F00002C400000244000001840BA
:10494000FF0300002D431CEBE2361A3F80842E410A
:10495000099B0022013B09932000164B290001F01E
:10496000C6FA0A00010003000A910B9294E70023A3
:1049700000240A930B9400230993249A099B9A42DA
:1049800014DDD31A013B24938023269ADB001A43BB
:1049900000230025269209932DE6802212069446D4
:1049A000229B1E00239B63441F0006E600232493E2
:1049B000EAE7C04600002440F0B54546DE464E46D4
:1049C0005746E0B595B08B46904699461E9A1F9B78
:1049D0000A9019001000209D01F0FDFA002800D077
:1049E000B0E11E981F990122C74B524201F0E0FA34
:1049F000002800D037E11E981F990122C34B524274
:104A000001F0E4FA002800D0A7E01E981F990022C8
:104A1000BF4B01F0DBFA002800D088E01E981F99F8
:104A20000022BC4B01F0C4FA002800D07FE01E98A1
:104A30001F990022002301F0BBFA002800D0FAE001
:104A400000230B938023229C229ADB001C401A42F5
:104A500000D102E1092D00D87CE106A98C462C008A
:104A6000172200233021093C62440133D154EF1A4C
:104A7000202B00D132E1A342F7D10022A44B0692B1
:104A800007931E981F9901F0D1FA050001F0B6FABC
:104A900002000B001E981F9901F017FA069A079B57
:104AA00001F043FA0890099101F0E4FA060001F0E0
:104AB000A1FA02000B000898099901F006FA0022F9
:104AC000954B0890099101F081FA002800D1D2E0BD
:104AD0000136300001F08EFA069A079B01F06EFA5B
:104AE000002801D000260135AA46002F00D098E00A
:104AF000280001F083FA02000B001E981F9901F0B4
:104B0000E4F9854B002206000F0001F051FA0CABCE
:104B10009A46002845D10022300039007E4B01F032
:104B200055FA00283DD1EB073BD5013539E0229BF2
:104B300042460493219B594603930A981E9B1F9C4F
:104B40000295009301944B46FFF704FD15B0F0BCAD
:104B5000BB46B246A946A046F0BD229B5B0767D480
:104B600003226E4B229901920391219902910093A5
:104B700042464B4659460A98FFF75EFBE6E706AA0F
:104B800094461723280063440A2101341E1900F0BB
:104B900039FF3031280031700A2100F033FF051E43
:104BA00076D0202CEBD10323229A1340012B1DD168
:104BB000219B002B1AD00B9B002B00D0BBE0229A2C
:104BC0000C33134200D0B6E0219BA34200D887E00B
:104BD00006AB9C4617223023624404E0219901343D
:104BE00013558C4259D0202CF8D12024229B0194BB
:104BF0000393219B02935346B9E706AA94461723D1
:104C00000A216344300001341D1900F023FF3031C4
:104C1000297030000A21013F00F01CFF092E46D9FF
:104C20000600202CE9D155460CAB20249A46B8E763
:104C300004223B4B96E71E9A1F9B0020002101F0A7
:104C400044F901230B938023229C229ADB001E90BF
:104C50001F911C401A4200D0FCE60022314B06276F
:104C6000069207930DE7229B0393219B0293042353
:104C700001932D4B7BE7002208980999264B01F000
:104C800097F9002800D02FE7002E4FD101362BE7EF
:104C90000323229A1340012B66D0202CA6D00B9B15
:104CA000002B1FD02D235246135501349EE7554645
:104CB000202CB9D030233A19002F08D0172006A98C
:104CC000013409180B55202CAED09442F6D10CAB10
:104CD0009A462E2352461355013462E72024CCE62F
:104CE000202C83D0229B5B0708D4229B1B0700D477
:104CF0007CE7202352461355013477E72B23524695
:104D00001355013472E7C046FFFFEFFFFFFFEF7F4F
:104D100065CDCD4165CDCDC10000E03F28A3001099
:104D200020A3001080842E4130A30010F30700D48C
:104D3000DAE60136D8E6219B013B2193A34200D954
:104D400046E7AAE7229B0393219B02930323019347
:104D5000074B0CE7074BEA009B185C681B682F00A9
:104D60000693079400248CE6219B002B95D022E724
:104D70002CA3001018A60010F0B55746DE464E468C
:104D80004546E0B5A5B01F002E9B91460D93CA4A3B
:104D9000CA4B82468B461A60002900D129E20023C3
:104DA00038789846002800D12BE2C54B44460C9336
:104DB000C44B55464E460E930AE0631C98462200AB
:104DC00033005946A84744463878002800D187E088
:104DD00001372528F1D108239A46043B9946023B26
:104DE0009846013B00229C460B943878791C0300BE
:104DF000203BDBB2102B03D80C9C9B00E3589F4652
:104E00000300303B0B9C0B92092B3AD900239846A8
:104E10002A2800D1DDE000239A462E284BD003003B
:104E2000683BDBB2122B1ED80E9A9B00D3589F46CC
:104E300063460F001A43D8E743460F001A43D4E7EE
:104E40004B460F001A43D0E710230F001A43CCE75C
:104E500053460F001A43C8E780235B000B9A78780B
:104E60001A430B9201310F0067284FD82428A4D988
:104E70000300253BDBB2422B9FD893499B00CB58C4
:104E80009F46002398460B9B47469C4600E0013115
:104E9000BB00DB195B001F180878303F0300303B74
:104EA000092BF4D963460B930023B8469A460F00AA
:104EB00001312E28B3D180200B9AC00002430B92FF
:104EC00030225242944678780B0084446246092A84
:104ED00000D8AAE12A2800D1B9E10F0001319EE7EC
:104EE000A046AA46B146C84503D301235B424B44C2
:104EF00098464B46424659460020D047200025B0F0
:104F0000F0BCBB46B246A946A046F0BD01006939D7
:104F1000C9B20F2900D950E701238B409C466B4B47
:104F2000994663464A4613400F9362464B461A42DF
:104F300000D068E10A2956D0072900D03DE70D9B33
:104F400002CB9846002900D092E10B9B10211A0059
:104F50008A43100011310843814680201A00C000A6
:104F60000240110003421CD114AB9C461F220F23A8
:104F700062440D959C4615000F9B0B9402E0202B7C
:104F80000CD0110064460C4020003730092C00D8AA
:104F900007380133E8540A090F29F0D80B9C0D9DFE
:104FA0000F934B460822069353460592083203920C
:104FB000002204930F9B029201931CAB22000093EA
:104FC000594633002800FFF78DF9434604000D933E
:104FD000FAE60D9B04CB9046002A79DB78780D9396
:104FE0000F00013117E70D9B02CB14930B789C4601
:104FF00018005346002B00D134E1002815D0534649
:10500000013B013399460D940B9C89444A460B00A1
:10501000A14601E0934203D05C780133002CF9D122
:105020004A465B1A0D9C0B920F938023DB00994636
:105030000B9A13400D934B461A4204D00F9B5345D5
:1050400001D953460F93022399460B9A13400B93B1
:105050004B46134200D1F5E16346002B00D1D6E167
:105060000D9B002B00D182E10B1BD14631009A46EB
:105070003B00A1442E005F464D4622009B468946D8
:1050800009E04B463900541CB0475346185D0028D0
:1050900000D192E122009542F3D14B465A46A946EF
:1050A000BB46350017001E004C460B9B002B00D062
:1050B000ADE1149B0D9387E6794D0010E0240020AC
:1050C00078A40010BCA4001008A5001041900000B6
:1050D0000B9A283802430B92424652427878904607
:1050E0000F000D93013196E678786C2800D15DE1D0
:1050F00080230B9A5B001A430B920131B3E68023A5
:105100009B00ABE67878682800D148E180230B9AB1
:1051100001311A430B92A6E6672800D1B2E0472876
:1051200000D11AE1452800D11CE10B9A0721049215
:1051300042460D9B0392073352468B43190002925D
:105140000CC92800009201930D91220033005946AA
:10515000FFF700FA040037E6462800D18DE00B9AED
:105160000721049242460D9B0392073352468B431C
:10517000190002920CC92800009201930D9122009F
:1051800033005946FFF718FC04001DE6631C9846DF
:105190002200330059462520A847444614E60D9BBB
:1051A00004330F93631C99460B9B9A0700D40AE1C2
:1051B0000D9B2200187859463300A84743464444C3
:1051C000012B00D86FE1B0462E0025004C46B946B1
:1051D0005F4622004346013439002020B047AC42EC
:1051E000F7D12C00BB4635004F4646460F9B0D932A
:1051F000EAE5D64B38789A4600239846002800D036
:10520000D3E500246FE66F2842D000D8FDE11023DB
:10521000782800D19BE00B9A9A430B920A239C4674
:10522000002314930A330F9338E057460B9AB900C2
:10523000C919490001330F181878303F010030397F
:105240000929F4D9BA460B921F00591CE7E50D9BBA
:10525000B87804CB0237D143C9170A4092460D9360
:10526000791CDCE5002800D1DFE602235B42C8E6BA
:1052700021200B9A0243914676E620230B9A1A438B
:105280000B926CE780230B9A1B011A430B924CE79D
:1052900008239C460023149308330F930B98802314
:1052A0000200DB001A4011000200184200D080E02A
:1052B0000C239A431000802302009B001A400B929B
:1052C000184200D0F1E0802302005B001A409146B2
:1052D0000D9A04321492184200D0C3E2430600D55E
:1052E000D7E0030600D421E30D9B1B880993002B14
:1052F00000D02DE110339843002900D128E100238C
:10530000994643460593534604930F9B0690039397
:10531000002302934B4601931CAB22000093594695
:1053200033002800FEF7DEFF0400C2E6582809D04B
:10533000622800D0E3E202239C4600231493023348
:105340000F93ABE720230B9A1A430B92103B9C461A
:105350000023149310330F93A0E780230B9A1B01B3
:105360001A430B9220230B9A1A430B92DDE60B1B78
:105370009A460F9B99463B0037005E469B462200AB
:105380003B003100A84753460134185D0028F6D190
:105390004B460F935B46B3463E001F0085E6C02395
:1053A0000B9AB8781A430B92F91C5CE5C0239B005A
:1053B000F6E70D239A4310007DE75B463500BB46B8
:1053C0004E461F0071E64346012B66D9631E4344D7
:1053D00032002E001D003B00A2465F4691469B46D0
:1053E00022004B46013439002020B047AC42F7D1AF
:1053F0005B463500BB464E46A14654461F000D9BFA
:105400004A461878594633004444A847EEE60F9BB5
:10541000A146984500D84CE64444E41AB0462E0014
:1054200025004C46B9465F46220043460134390008
:105430002020B047AC42F7D12C00BB4635004F4688
:10544000464636E60F98804500D873E24346E21898
:10545000131A32002E001D003B0091465F469B460A
:105460000F9122004B46013439002020B047AC4256
:10547000F7D15B46BB461F0043460F9901330F939C
:105480000B7835009C464E466046002800D0E7E584
:105490000FE60D9B1B78099329E70D9B22001878D6
:1054A00059463300A8474C46A0E60D9AFA3BFF3B0D
:1054B00007329A430133994691444B460D93136842
:1054C000526815921A4306D1103290430022099275
:1054D000002900D083E06122810600D54122D2B2AA
:1054E0000A9214AA91460A9A00210A3A0B9242465D
:1054F0001792524618925A46B24609911E001F3121
:10550000149B4944BB4616941A9500246746984656
:105510008946159D19901B920AE03032D2B24B4653
:1055200001341A55A8454CD0202C4CD006000D0053
:105530003A0000233000290000F0CAFAD2B2092A4A
:10554000EBD90B9B9C466244D2B2E8E7354200108F
:105550006123820600D54123DBB20A3B0B9343460D
:1055600014A91F228C46159353466244B2460D94EB
:1055700017974C468046A9461700099D0F9E169323
:1055800008E03033DBB201343B55B5420ED3202C5A
:105590000CD005003100280000F05CFACBB20929DC
:1055A000EFD90B9A94466344DBB2ECE7159B404677
:1055B0009846169B4D465646A1469A460D9C179F07
:1055C0009FE6B742B0D9179B56469846189B5F4650
:1055D0009A461B9B09949B46169C19981A9D434614
:1055E0000593534604930F9B069003930023029365
:1055F000099B01931CAB22000093594633002800FD
:10560000FEF770FE0400FFF7DFFB10230B9A9A43AE
:105610000F92692800D091E10B9980230A00DB00EA
:105620001A4010000A00194203D0112118008A43C1
:105630000F920F9A802311009B0019408C461A424A
:105640005BD1802311005B00194089460D9904311C
:105650000B911A4200D0B2E013005B0600D4EDE0DB
:105660000D9B1B781A00D90F0D91002B00D1A3E0E0
:10567000100014AA944642461F23159252466344D2
:10568000A846BA464D461494B14604001F0016922F
:1056900001E0202D0FD020000A2100F0DBF90135B8
:1056A0007E193031317020000A2100F0D3F9260034
:1056B0000400092EEDD8159B4E46A946454698464E
:1056C000169B57469A46149C0F9B06934346059398
:1056D000534604930A2303930D9B02934B46019375
:1056E0001CAB22000093594633002800FEF7FAFD58
:1056F0000B9B04000D93FFF767FB07220D9B0733FD
:105700009343013294469C4462460D920CCBD90FD0
:105710000B911100194300D19BE0D91713911291FD
:105720005140109113995940119110981199129A62
:10573000139B801A99411090119114AA94464246E5
:105740000023159252469946169232001F33634445
:10575000A8464E46BA4614941F00109C119D9146CF
:1057600001E0202E10D0200029000A22002300F0A2
:10577000AFF9013630322B00BA550D00220004007B
:10578000002BEED1092AECD8159B109411954546B3
:1057900098464B46169AB14657461E009246149CB0
:1057A0000F9B069343460593534604930A230393A2
:1057B0000B9B02934B461CE7002885D159E70D9BB4
:1057C0001B68DA0F1100002B00D1A6E0DA17981839
:1057D000504014AA91461F2342464B44A8460D94BC
:1057E000169704006546B1461F001491159201E01A
:1057F000202D0FD020000A2100F02CF901357E1950
:105800003031317020000A2100F024F92600040014
:10581000092EEDD8159BAC4645469846149B4E463E
:1058200019000D9C169F0F9B02910693434605930A
:10583000534604930A230393634650E713001B0661
:105840006ED50D9B00229B5ED9175A184A4092B222
:1058500009E7002399460028A2D1002200231092D4
:1058600011936AE70D9B1B689946002B03D11033F7
:105870009843002938D16123820600D54123DBB249
:105880000A3B0D9343461693534614A91F228C4698
:1058900017932B0062444D46B246159418978046E4
:1058A000170099460B9C0F9E08E03033DBB20134A1
:1058B0003B55B5420ED3202C0CD0050031002800FA
:1058C00000F0C8F8CBB20929EFD90D9A9446634489
:1058D000DBB2ECE7169B40469846179B56464D4672
:1058E0009A460B94189F159C434605935346049380
:1058F0000F9B06900393002302930B9B0BE50B99E0
:1059000080230A00DB001A4010000A00194200D070
:105910008BE610239A430F928BE6002883D158E739
:105920000D9B1B68D9175A184A409CE60D9B1B68B3
:105930000993DCE4030001330F93A5E50B926DE4BA
:1059400000B585B003910121029000930348130034
:105950004A4202A9FFF710FA05B000BD4545001004
:1059600010B5094A0300146884B0002C08D0012245
:1059700000910648524203A9A047012004B010BD7F
:1059800000F0E2FF0020F9E7E02400203545001098
:1059900001480421014B184740100020C159001054
:1059A000142310B50100188804331B88984710BDD4
:1059B000162310B50100188802331B88984710BDC4
:1059C000F8B54746CE4680B50F1E19D01423994628
:1059D000043304000025012698464B4618884346A8
:1059E00021681B88984701C4431E984101354042F5
:1059F0000640AF42F1D13000C0BCB946B046F8BD58
:105A00000126F8E7124A936F9B0815D29066D1667B
:105A1000002905D0FFE7FFE7FFE7516F106F7047E0
:105A200004B580210906C2175140002800D0C843A0
:105A300004F062F9002104BDF0B5146E556E576F85
:105A4000166FFFF7E3FF1466556657671667F0BDDC
:105A5000000000D0114A936F9B0813D21066516664
:105A6000002905D0FFE7FFE7FFE7516F106F704790
:105A700004B5002801D00020C04304F03DF9002106
:105A800004BDC046F0B5146E556E576F166FFFF724
:105A9000E5FF1466556657671667F0BD000000D035
:105AA00094464A4A926F9208624601D228E0C04664
:105AB000F0B5464E346E756E776F366F00F020F895
:105AC0009446424A14665566576716676246F0BDAB
:105AD00094463E4A926F9208624601D254E0C04614
